{
  "_format": "hh-sol-artifact-1",
  "contractName": "RampImplementation",
  "sourceName": "contracts/RampImplementation.sol",
  "abi": [
    {
      "inputs": [
        {
          "internalType": "address",
          "name": "signer",
          "type": "address"
        }
      ],
      "name": "InvalidSigner",
      "type": "error"
    },
    {
      "anonymous": false,
      "inputs": [
        {
          "indexed": false,
          "internalType": "uint256[]",
          "name": "newSourceChainIds",
          "type": "uint256[]"
        },
        {
          "indexed": false,
          "internalType": "uint256[]",
          "name": "newTargetChainIds",
          "type": "uint256[]"
        }
      ],
      "name": "ChainIdWhitelistUpdated",
      "type": "event"
    },
    {
      "anonymous": false,
      "inputs": [
        {
          "indexed": false,
          "internalType": "address[]",
          "name": "initialNodes",
          "type": "address[]"
        }
      ],
      "name": "ContractInitialized",
      "type": "event"
    },
    {
      "anonymous": false,
      "inputs": [
        {
          "indexed": true,
          "internalType": "bytes32",
          "name": "messageId",
          "type": "bytes32"
        },
        {
          "indexed": false,
          "internalType": "uint256",
          "name": "sourceChainId",
          "type": "uint256"
        },
        {
          "indexed": false,
          "internalType": "uint256",
          "name": "targetChainId",
          "type": "uint256"
        },
        {
          "indexed": false,
          "internalType": "string",
          "name": "sender",
          "type": "string"
        },
        {
          "indexed": false,
          "internalType": "address",
          "name": "receiver",
          "type": "address"
        },
        {
          "indexed": false,
          "internalType": "bytes",
          "name": "message",
          "type": "bytes"
        }
      ],
      "name": "ForwardMessageCalled",
      "type": "event"
    },
    {
      "anonymous": false,
      "inputs": [
        {
          "indexed": false,
          "internalType": "address[]",
          "name": "newOracleNodes",
          "type": "address[]"
        }
      ],
      "name": "OracleNodesUpdated",
      "type": "event"
    },
    {
      "anonymous": false,
      "inputs": [
        {
          "indexed": true,
          "internalType": "address",
          "name": "previousOwner",
          "type": "address"
        },
        {
          "indexed": true,
          "internalType": "address",
          "name": "newOwner",
          "type": "address"
        }
      ],
      "name": "OwnershipTransferred",
      "type": "event"
    },
    {
      "anonymous": false,
      "inputs": [
        {
          "indexed": false,
          "internalType": "address",
          "name": "sender",
          "type": "address"
        }
      ],
      "name": "RampSenderAdded",
      "type": "event"
    },
    {
      "anonymous": false,
      "inputs": [
        {
          "indexed": false,
          "internalType": "address",
          "name": "sender",
          "type": "address"
        }
      ],
      "name": "RampSenderRemoved",
      "type": "event"
    },
    {
      "anonymous": false,
      "inputs": [
        {
          "indexed": true,
          "internalType": "bytes32",
          "name": "messageId",
          "type": "bytes32"
        },
        {
          "indexed": false,
          "internalType": "uint256",
          "name": "epoch",
          "type": "uint256"
        },
        {
          "indexed": true,
          "internalType": "address",
          "name": "sender",
          "type": "address"
        },
        {
          "indexed": false,
          "internalType": "string",
          "name": "receiver",
          "type": "string"
        },
        {
          "indexed": false,
          "internalType": "uint256",
          "name": "sourceChainId",
          "type": "uint256"
        },
        {
          "indexed": false,
          "internalType": "uint256",
          "name": "targetChainId",
          "type": "uint256"
        },
        {
          "indexed": false,
          "internalType": "bytes",
          "name": "message",
          "type": "bytes"
        },
        {
          "indexed": false,
          "internalType": "bytes",
          "name": "tokenTransferMetadataBytes",
          "type": "bytes"
        }
      ],
      "name": "RequestSent",
      "type": "event"
    },
    {
      "inputs": [
        {
          "internalType": "address",
          "name": "sender",
          "type": "address"
        }
      ],
      "name": "addRampSender",
      "outputs": [],
      "stateMutability": "nonpayable",
      "type": "function"
    },
    {
      "inputs": [
        {
          "internalType": "uint256",
          "name": "",
          "type": "uint256"
        }
      ],
      "name": "authorizedSourceChainIdList",
      "outputs": [
        {
          "internalType": "bool",
          "name": "",
          "type": "bool"
        }
      ],
      "stateMutability": "view",
      "type": "function"
    },
    {
      "inputs": [
        {
          "internalType": "uint256",
          "name": "",
          "type": "uint256"
        }
      ],
      "name": "authorizedTargetChainIdList",
      "outputs": [
        {
          "internalType": "bool",
          "name": "",
          "type": "bool"
        }
      ],
      "stateMutability": "view",
      "type": "function"
    },
    {
      "inputs": [],
      "name": "epoch",
      "outputs": [
        {
          "internalType": "uint256",
          "name": "",
          "type": "uint256"
        }
      ],
      "stateMutability": "view",
      "type": "function"
    },
    {
      "inputs": [],
      "name": "getDomainSeparator",
      "outputs": [
        {
          "internalType": "bytes32",
          "name": "",
          "type": "bytes32"
        }
      ],
      "stateMutability": "view",
      "type": "function"
    },
    {
      "inputs": [],
      "name": "getInitialized",
      "outputs": [
        {
          "internalType": "bool",
          "name": "",
          "type": "bool"
        }
      ],
      "stateMutability": "view",
      "type": "function"
    },
    {
      "inputs": [],
      "name": "getOracleNodes",
      "outputs": [
        {
          "internalType": "address[]",
          "name": "",
          "type": "address[]"
        }
      ],
      "stateMutability": "view",
      "type": "function"
    },
    {
      "inputs": [],
      "name": "getTransmitTypeHash",
      "outputs": [
        {
          "internalType": "bytes32",
          "name": "",
          "type": "bytes32"
        }
      ],
      "stateMutability": "view",
      "type": "function"
    },
    {
      "inputs": [
        {
          "internalType": "address[]",
          "name": "initialNodes",
          "type": "address[]"
        }
      ],
      "name": "initialize",
      "outputs": [],
      "stateMutability": "nonpayable",
      "type": "function"
    },
    {
      "inputs": [
        {
          "internalType": "address",
          "name": "sender",
          "type": "address"
        }
      ],
      "name": "isAuthorizedSender",
      "outputs": [
        {
          "internalType": "bool",
          "name": "",
          "type": "bool"
        }
      ],
      "stateMutability": "view",
      "type": "function"
    },
    {
      "inputs": [],
      "name": "owner",
      "outputs": [
        {
          "internalType": "address",
          "name": "",
          "type": "address"
        }
      ],
      "stateMutability": "view",
      "type": "function"
    },
    {
      "inputs": [
        {
          "internalType": "address",
          "name": "sender",
          "type": "address"
        }
      ],
      "name": "removeRampSenderFrom",
      "outputs": [],
      "stateMutability": "nonpayable",
      "type": "function"
    },
    {
      "inputs": [],
      "name": "renounceOwnership",
      "outputs": [],
      "stateMutability": "nonpayable",
      "type": "function"
    },
    {
      "inputs": [
        {
          "internalType": "uint256",
          "name": "targetChainId",
          "type": "uint256"
        },
        {
          "internalType": "string",
          "name": "receiver",
          "type": "string"
        },
        {
          "internalType": "bytes",
          "name": "message",
          "type": "bytes"
        },
        {
          "components": [
            {
              "internalType": "uint256",
              "name": "targetChainId",
              "type": "uint256"
            },
            {
              "internalType": "string",
              "name": "tokenAddress",
              "type": "string"
            },
            {
              "internalType": "string",
              "name": "symbol",
              "type": "string"
            },
            {
              "internalType": "uint256",
              "name": "amount",
              "type": "uint256"
            },
            {
              "internalType": "bytes",
              "name": "extraData",
              "type": "bytes"
            }
          ],
          "internalType": "struct IRamp.TokenTransferMetadata",
          "name": "tokenTransferMetadata",
          "type": "tuple"
        }
      ],
      "name": "sendRequest",
      "outputs": [
        {
          "internalType": "bytes32",
          "name": "messageId",
          "type": "bytes32"
        }
      ],
      "stateMutability": "nonpayable",
      "type": "function"
    },
    {
      "inputs": [],
      "name": "signatureThreshold",
      "outputs": [
        {
          "internalType": "uint256",
          "name": "",
          "type": "uint256"
        }
      ],
      "stateMutability": "view",
      "type": "function"
    },
    {
      "inputs": [
        {
          "internalType": "address",
          "name": "newOwner",
          "type": "address"
        }
      ],
      "name": "transferOwnership",
      "outputs": [],
      "stateMutability": "nonpayable",
      "type": "function"
    },
    {
      "inputs": [
        {
          "internalType": "bytes",
          "name": "reportContextBytes",
          "type": "bytes"
        },
        {
          "internalType": "bytes",
          "name": "message",
          "type": "bytes"
        },
        {
          "internalType": "bytes",
          "name": "tokenTransferMetadataBytes",
          "type": "bytes"
        },
        {
          "internalType": "bytes[]",
          "name": "signatures",
          "type": "bytes[]"
        }
      ],
      "name": "transmit",
      "outputs": [],
      "stateMutability": "nonpayable",
      "type": "function"
    },
    {
      "inputs": [
        {
          "internalType": "uint256[]",
          "name": "newSourceChainIds",
          "type": "uint256[]"
        },
        {
          "internalType": "uint256[]",
          "name": "newTargetChainIds",
          "type": "uint256[]"
        }
      ],
      "name": "updateChainIdWhitelist",
      "outputs": [],
      "stateMutability": "nonpayable",
      "type": "function"
    },
    {
      "inputs": [
        {
          "internalType": "address[]",
          "name": "newOracleNodes",
          "type": "address[]"
        }
      ],
      "name": "updateOracleNodes",
      "outputs": [],
      "stateMutability": "nonpayable",
      "type": "function"
    }
  ],
  "bytecode": "0x60806040523480156200001157600080fd5b5062000032620000266200003860201b60201c565b6200004060201b60201c565b62000104565b600033905090565b60008060009054906101000a900473ffffffffffffffffffffffffffffffffffffffff169050816000806101000a81548173ffffffffffffffffffffffffffffffffffffffff021916908373ffffffffffffffffffffffffffffffffffffffff1602179055508173ffffffffffffffffffffffffffffffffffffffff168173ffffffffffffffffffffffffffffffffffffffff167f8be0079c531659141344cd1fd0a4f28419497f9722a3daafe3b4186f6b6457e060405160405180910390a35050565b61443980620001146000396000f3fe608060405234801561001057600080fd5b50600436106101215760003560e01c80638da5cb5b116100ad578063bd86b24711610071578063bd86b247146102e2578063ed24911d146102fe578063ee89dab41461031c578063f2fde38b1461033a578063fa00763a1461035657610121565b80638da5cb5b1461023c578063900cf0cf1461025a57806393d87a6d14610278578063a224cee7146102a8578063a82f2e26146102c457610121565b80632831feb2116100f45780632831feb21461019857806340fd10b3146101c857806346910382146101e657806357b5cabe14610216578063715018a61461023257610121565b8063079cb10414610126578063115af4bd146101425780631633baf814610160578063220b62e91461017c575b600080fd5b610140600480360381019061013b91906121e8565b610386565b005b61014a61051d565b604051610157919061222e565b60405180910390f35b61017a600480360381019061017591906122ae565b61052c565b005b61019660048036038101906101919190612385565b610583565b005b6101b260048036038101906101ad91906124d8565b610612565b6040516101bf919061222e565b60405180910390f35b6101d06107e3565b6040516101dd9190612659565b60405180910390f35b61020060048036038101906101fb919061267b565b610871565b60405161020d91906126c3565b60405180910390f35b610230600480360381019061022b9190612734565b610891565b005b61023a610c54565b005b610244610c68565b604051610251919061282c565b60405180910390f35b610262610c91565b60405161026f9190612856565b60405180910390f35b610292600480360381019061028d919061267b565b610c97565b60405161029f91906126c3565b60405180910390f35b6102c260048036038101906102bd91906129c0565b610cb7565b005b6102cc610d88565b6040516102d99190612856565b60405180910390f35b6102fc60048036038101906102f791906121e8565b610d8e565b005b610306610f1b565b604051610313919061222e565b60405180910390f35b610324610f2a565b60405161033191906126c3565b60405180910390f35b610354600480360381019061034f91906121e8565b610f41565b005b610370600480360381019061036b91906121e8565b610fc5565b60405161037d91906126c3565b60405180910390f35b61038e61101b565b600073ffffffffffffffffffffffffffffffffffffffff168173ffffffffffffffffffffffffffffffffffffffff1614156103fe576040517f08c379a00000000000000000000000000000000000000000000000000000000081526004016103f590612a66565b60405180910390fd5b600660008273ffffffffffffffffffffffffffffffffffffffff1673ffffffffffffffffffffffffffffffffffffffff16815260200190815260200160002060009054906101000a900460ff161561048b576040517f08c379a000000000000000000000000000000000000000000000000000000000815260040161048290612ad2565b60405180910390fd5b6001600660008373ffffffffffffffffffffffffffffffffffffffff1673ffffffffffffffffffffffffffffffffffffffff16815260200190815260200160002060006101000a81548160ff0219169083151502179055507f12e7152f171a42af21e958b201eef8ec1bf09fed3988b9e22ca25f28fd7421df81604051610512919061282c565b60405180910390a150565b6000610527611099565b905090565b61053461101b565b610540848484846110c1565b7fe605ff1afd5c657d132f0ee7e8fcc7fd4382b225fc27f3780c692ed6ea795c22848484846040516105759493929190612b73565b60405180910390a150505050565b61058b61101b565b6105d5828280806020026020016040519081016040528093929190818152602001838360200280828437600081840152601f19601f820116905080830192505050505050506114bd565b7f39f1a489792313176c1d2308facdb63d783fe500eda8c180f017d9f6c8d8fd1a8282604051610606929190612c39565b60405180910390a15050565b6000600660003373ffffffffffffffffffffffffffffffffffffffff1673ffffffffffffffffffffffffffffffffffffffff16815260200190815260200160002060009054906101000a900460ff166106a0576040517f08c379a000000000000000000000000000000000000000000000000000000000815260040161069790612ccf565b60405180910390fd5b600a600088815260200190815260200160002060009054906101000a900460ff16610700576040517f08c379a00000000000000000000000000000000000000000000000000000000081526004016106f790612d3b565b60405180910390fd5b338787878787876005544260405160200161072399989796959493929190612fef565b60405160208183030381529060405280519060200120905060008260405160200161074e9190613077565b60405160208183030381529060405290503373ffffffffffffffffffffffffffffffffffffffff16827f362bbf8bca7bcf02421883424183d71fb91b906334136bc65a59b278fbf2995d6005548a8a468e8c8c8a6040516107b6989796959493929190613110565b60405180910390a36001600560008282546107d191906131b9565b92505081905550509695505050505050565b6060600280548060200260200160405190810160405280929190818152602001828054801561086757602002820191906000526020600020905b8160009054906101000a900473ffffffffffffffffffffffffffffffffffffffff1673ffffffffffffffffffffffffffffffffffffffff168152602001906001019080831161081d575b5050505050905090565b60086020528060005260406000206000915054906101000a900460ff1681565b600360003373ffffffffffffffffffffffffffffffffffffffff1673ffffffffffffffffffffffffffffffffffffffff16815260200190815260200160002060009054906101000a900460ff1661091d576040517f08c379a000000000000000000000000000000000000000000000000000000000815260040161091490613281565b60405180910390fd5b60008686905011610963576040517f08c379a000000000000000000000000000000000000000000000000000000000815260040161095a906132ed565b60405180910390fd5b60006109738989898989896117f8565b9050600b600082815260200190815260200160002060009054906101000a900460ff16156109d6576040517f08c379a00000000000000000000000000000000000000000000000000000000081526004016109cd9061337f565b60405180910390fd5b6001600b600083815260200190815260200160002060006101000a81548160ff0219169083151502179055506000610a0e8a8a6118a4565b9050600860008260200151815260200190815260200160002060009054906101000a900460ff16610a74576040517f08c379a0000000000000000000000000000000000000000000000000000000008152600401610a6b906133eb565b60405180910390fd5b610a7c6120a0565b6000878790501115610a9557610a928787611917565b90505b6000826040015111610adc576040517f08c379a0000000000000000000000000000000000000000000000000000000008152600401610ad390613457565b60405180910390fd5b600073ffffffffffffffffffffffffffffffffffffffff16826080015173ffffffffffffffffffffffffffffffffffffffff161415610b50576040517f08c379a0000000000000000000000000000000000000000000000000000000008152600401610b47906134c3565b60405180910390fd5b610b6683868690610b61919061363c565b611974565b816080015173ffffffffffffffffffffffffffffffffffffffff1663cfd2ae2483602001518460400151856060015186608001518e8e886040518863ffffffff1660e01b8152600401610bbf979695949392919061378b565b600060405180830381600087803b158015610bd957600080fd5b505af1158015610bed573d6000803e3d6000fd5b5050505081600001517fc9ee1de27ca4a71f0acb85afb0c733c018d753c6cfea72b687d8afd0cb8552e183602001518460400151856060015186608001518e8e604051610c3f96959493929190613803565b60405180910390a25050505050505050505050565b610c5c61101b565b610c666000611bec565b565b60008060009054906101000a900473ffffffffffffffffffffffffffffffffffffffff16905090565b60055481565b600a6020528060005260406000206000915054906101000a900460ff1681565b610cbf61101b565b600160149054906101000a900460ff1615610d0f576040517f08c379a0000000000000000000000000000000000000000000000000000000008152600401610d06906138b2565b60405180910390fd5b60018060146101000a81548160ff021916908315150217905550610d31611cb0565b600d81905550610d3f611099565b600c81905550610d4e816114bd565b7f107dca9fde0b820147e52b1c049bc1dd2bd454bc3afb1a7a54bf7419a0f42b6381604051610d7d9190612659565b60405180910390a150565b60045481565b610d9661101b565b600073ffffffffffffffffffffffffffffffffffffffff168173ffffffffffffffffffffffffffffffffffffffff161415610e06576040517f08c379a0000000000000000000000000000000000000000000000000000000008152600401610dfd90612a66565b60405180910390fd5b600660008273ffffffffffffffffffffffffffffffffffffffff1673ffffffffffffffffffffffffffffffffffffffff16815260200190815260200160002060009054906101000a900460ff16610e92576040517f08c379a0000000000000000000000000000000000000000000000000000000008152600401610e899061391e565b60405180910390fd5b600660008273ffffffffffffffffffffffffffffffffffffffff1673ffffffffffffffffffffffffffffffffffffffff16815260200190815260200160002060006101000a81549060ff02191690557f6f779521de29c7e4fdcbb3169b6f28fb28b65cda6e3a76350536009f6610048081604051610f10919061282c565b60405180910390a150565b6000610f25611cb0565b905090565b6000600160149054906101000a900460ff16905090565b610f4961101b565b600073ffffffffffffffffffffffffffffffffffffffff168173ffffffffffffffffffffffffffffffffffffffff161415610fb9576040517f08c379a0000000000000000000000000000000000000000000000000000000008152600401610fb0906139b0565b60405180910390fd5b610fc281611bec565b50565b6000600660008373ffffffffffffffffffffffffffffffffffffffff1673ffffffffffffffffffffffffffffffffffffffff16815260200190815260200160002060009054906101000a900460ff169050919050565b611023611d46565b73ffffffffffffffffffffffffffffffffffffffff16611041610c68565b73ffffffffffffffffffffffffffffffffffffffff1614611097576040517f08c379a000000000000000000000000000000000000000000000000000000000815260040161108e90613a1c565b60405180910390fd5b565b60007f263842ce09da169bd645e7c4d59df7b52f55902b9b3671a6fe4282a6c149f9c3905090565b60005b60078054905081101561112e57600060086000600784815481106110eb576110ea613a3c565b5b9060005260206000200154815260200190815260200160002060006101000a81548160ff021916908315150217905550808061112690613a6b565b9150506110c4565b506007600061113d91906120cf565b60005b848490508110156112bb5760008585838181106111605761115f613a3c565b5b90506020020135116111a7576040517f08c379a000000000000000000000000000000000000000000000000000000000815260040161119e90613b00565b60405180910390fd5b600860008686848181106111be576111bd613a3c565b5b90506020020135815260200190815260200160002060009054906101000a900460ff1615611221576040517f08c379a000000000000000000000000000000000000000000000000000000000815260040161121890613b6c565b60405180910390fd5b60016008600087878581811061123a57611239613a3c565b5b90506020020135815260200190815260200160002060006101000a81548160ff021916908315150217905550600785858381811061127b5761127a613a3c565b5b90506020020135908060018154018082558091505060019003906000526020600020016000909190919091505580806112b390613a6b565b915050611140565b5060005b600980549050811015611329576000600a6000600984815481106112e6576112e5613a3c565b5b9060005260206000200154815260200190815260200160002060006101000a81548160ff021916908315150217905550808061132190613a6b565b9150506112bf565b506009600061133891906120cf565b60005b828290508110156114b657600083838381811061135b5761135a613a3c565b5b90506020020135116113a2576040517f08c379a000000000000000000000000000000000000000000000000000000000815260040161139990613b00565b60405180910390fd5b600a60008484848181106113b9576113b8613a3c565b5b90506020020135815260200190815260200160002060009054906101000a900460ff161561141c576040517f08c379a000000000000000000000000000000000000000000000000000000000815260040161141390613b6c565b60405180910390fd5b6001600a600085858581811061143557611434613a3c565b5b90506020020135815260200190815260200160002060006101000a81548160ff021916908315150217905550600983838381811061147657611475613a3c565b5b90506020020135908060018154018082558091505060019003906000526020600020016000909190919091505580806114ae90613a6b565b91505061133b565b5050505050565b60005b60028054905081101561157657600060036000600284815481106114e7576114e6613a3c565b5b9060005260206000200160009054906101000a900473ffffffffffffffffffffffffffffffffffffffff1673ffffffffffffffffffffffffffffffffffffffff1673ffffffffffffffffffffffffffffffffffffffff16815260200190815260200160002060006101000a81548160ff021916908315150217905550808061156e90613a6b565b9150506114c0565b506002600061158591906120f0565b60005b81518110156117c457600073ffffffffffffffffffffffffffffffffffffffff168282815181106115bc576115bb613a3c565b5b602002602001015173ffffffffffffffffffffffffffffffffffffffff16141561161b576040517f08c379a000000000000000000000000000000000000000000000000000000000815260040161161290613bd8565b60405180910390fd5b6003600083838151811061163257611631613a3c565b5b602002602001015173ffffffffffffffffffffffffffffffffffffffff1673ffffffffffffffffffffffffffffffffffffffff16815260200190815260200160002060009054906101000a900460ff16156116c2576040517f08c379a00000000000000000000000000000000000000000000000000000000081526004016116b990613c44565b60405180910390fd5b60028282815181106116d7576116d6613a3c565b5b60200260200101519080600181540180825580915050600190039060005260206000200160009091909190916101000a81548173ffffffffffffffffffffffffffffffffffffffff021916908373ffffffffffffffffffffffffffffffffffffffff16021790555060016003600084848151811061175857611757613a3c565b5b602002602001015173ffffffffffffffffffffffffffffffffffffffff1673ffffffffffffffffffffffffffffffffffffffff16815260200190815260200160002060006101000a81548160ff02191690831515021790555080806117bc90613a6b565b915050611588565b506001600260016002805490506117db91906131b9565b6117e59190613c93565b6117ef91906131b9565b60048190555050565b6000600d54600c548888604051611810929190613cf4565b60405180910390208787604051611828929190613cf4565b60405180910390208686604051611840929190613cf4565b604051809103902060405160200161185b9493929190613d0d565b60405160208183030381529060405280519060200120604051602001611882929190613dca565b6040516020818303038152906040528051906020012090509695505050505050565b6118ac612111565b600080600080600087878101906118c39190613f0c565b945094509450945094506040518060a001604052808681526020018581526020018481526020018381526020018273ffffffffffffffffffffffffffffffffffffffff168152509550505050505092915050565b61191f6120a0565b600080600080600087878101906119369190613fa3565b945094509450945094506040518060a00160405280868152602001858152602001848152602001838152602001828152509550505050505092915050565b600454815110156119ba576040517f08c379a00000000000000000000000000000000000000000000000000000000081526004016119b1906140be565b60405180910390fd5b6000815167ffffffffffffffff8111156119d7576119d6612882565b5b604051908082528060200260200182016040528015611a055781602001602082028036833780820191505090505b50905060005b8251811015611be6576000611a3a85858481518110611a2d57611a2c613a3c565b5b6020026020010151611d4e565b9050600073ffffffffffffffffffffffffffffffffffffffff168173ffffffffffffffffffffffffffffffffffffffff161415611aac576040517f08c379a0000000000000000000000000000000000000000000000000000000008152600401611aa39061412a565b60405180910390fd5b611ab68382611d75565b15611af6576040517f08c379a0000000000000000000000000000000000000000000000000000000008152600401611aed90614196565b60405180910390fd5b80838381518110611b0a57611b09613a3c565b5b602002602001019073ffffffffffffffffffffffffffffffffffffffff16908173ffffffffffffffffffffffffffffffffffffffff1681525050600360008273ffffffffffffffffffffffffffffffffffffffff1673ffffffffffffffffffffffffffffffffffffffff16815260200190815260200160002060009054906101000a900460ff16611bd257806040517fbf18af43000000000000000000000000000000000000000000000000000000008152600401611bc9919061282c565b60405180910390fd5b508080611bde90613a6b565b915050611a0b565b50505050565b60008060009054906101000a900473ffffffffffffffffffffffffffffffffffffffff169050816000806101000a81548173ffffffffffffffffffffffffffffffffffffffff021916908373ffffffffffffffffffffffffffffffffffffffff1602179055508173ffffffffffffffffffffffffffffffffffffffff168173ffffffffffffffffffffffffffffffffffffffff167f8be0079c531659141344cd1fd0a4f28419497f9722a3daafe3b4186f6b6457e060405160405180910390a35050565b60007f8b73c3c69bb8fe3d512ecc4cf759cc79239f7b179b0ffacaa9a75d522b39400f7fba99c710227694b906ef7c6824495a66c6bf54a40a598ba69485f556cdf92c9d7f06c015bd22b4c69690933c1058878ebdfef31f9aaae40bbe86d8a09fe1b2972c4630604051602001611d2b9594939291906141b6565b60405160208183030381529060405280519060200120905090565b600033905090565b6000806000611d5d8585611dfd565b91509150611d6a81611e4f565b819250505092915050565b600080600090505b8351811015611df157838181518110611d9957611d98613a3c565b5b602002602001015173ffffffffffffffffffffffffffffffffffffffff168373ffffffffffffffffffffffffffffffffffffffff161415611dde576001915050611df7565b8080611de990613a6b565b915050611d7d565b50600090505b92915050565b600080604183511415611e3f5760008060006020860151925060408601519150606086015160001a9050611e3387828585611fbd565b94509450505050611e48565b60006002915091505b9250929050565b60006004811115611e6357611e62614209565b5b816004811115611e7657611e75614209565b5b1415611e8157611fba565b60016004811115611e9557611e94614209565b5b816004811115611ea857611ea7614209565b5b1415611ee9576040517f08c379a0000000000000000000000000000000000000000000000000000000008152600401611ee090614284565b60405180910390fd5b60026004811115611efd57611efc614209565b5b816004811115611f1057611f0f614209565b5b1415611f51576040517f08c379a0000000000000000000000000000000000000000000000000000000008152600401611f48906142f0565b60405180910390fd5b60036004811115611f6557611f64614209565b5b816004811115611f7857611f77614209565b5b1415611fb9576040517f08c379a0000000000000000000000000000000000000000000000000000000008152600401611fb090614382565b60405180910390fd5b5b50565b6000807f7fffffffffffffffffffffffffffffff5d576e7357a4501ddfe92f46681b20a08360001c1115611ff8576000600391509150612097565b60006001878787876040516000815260200160405260405161201d94939291906143be565b6020604051602081039080840390855afa15801561203f573d6000803e3d6000fd5b505050602060405103519050600073ffffffffffffffffffffffffffffffffffffffff168173ffffffffffffffffffffffffffffffffffffffff16141561208e57600060019250925050612097565b80600092509250505b94509492505050565b6040518060a0016040528060008152602001606081526020016060815260200160008152602001606081525090565b50805460008255906000526020600020908101906120ed9190612159565b50565b508054600082559060005260206000209081019061210e9190612159565b50565b6040518060a0016040528060008019168152602001600081526020016000815260200160608152602001600073ffffffffffffffffffffffffffffffffffffffff1681525090565b5b8082111561217257600081600090555060010161215a565b5090565b6000604051905090565b600080fd5b600080fd5b600073ffffffffffffffffffffffffffffffffffffffff82169050919050565b60006121b58261218a565b9050919050565b6121c5816121aa565b81146121d057600080fd5b50565b6000813590506121e2816121bc565b92915050565b6000602082840312156121fe576121fd612180565b5b600061220c848285016121d3565b91505092915050565b6000819050919050565b61222881612215565b82525050565b6000602082019050612243600083018461221f565b92915050565b600080fd5b600080fd5b600080fd5b60008083601f84011261226e5761226d612249565b5b8235905067ffffffffffffffff81111561228b5761228a61224e565b5b6020830191508360208202830111156122a7576122a6612253565b5b9250929050565b600080600080604085870312156122c8576122c7612180565b5b600085013567ffffffffffffffff8111156122e6576122e5612185565b5b6122f287828801612258565b9450945050602085013567ffffffffffffffff81111561231557612314612185565b5b61232187828801612258565b925092505092959194509250565b60008083601f84011261234557612344612249565b5b8235905067ffffffffffffffff8111156123625761236161224e565b5b60208301915083602082028301111561237e5761237d612253565b5b9250929050565b6000806020838503121561239c5761239b612180565b5b600083013567ffffffffffffffff8111156123ba576123b9612185565b5b6123c68582860161232f565b92509250509250929050565b6000819050919050565b6123e5816123d2565b81146123f057600080fd5b50565b600081359050612402816123dc565b92915050565b60008083601f84011261241e5761241d612249565b5b8235905067ffffffffffffffff81111561243b5761243a61224e565b5b60208301915083600182028301111561245757612456612253565b5b9250929050565b60008083601f84011261247457612473612249565b5b8235905067ffffffffffffffff8111156124915761249061224e565b5b6020830191508360018202830111156124ad576124ac612253565b5b9250929050565b600080fd5b600060a082840312156124cf576124ce6124b4565b5b81905092915050565b600080600080600080608087890312156124f5576124f4612180565b5b600061250389828a016123f3565b965050602087013567ffffffffffffffff81111561252457612523612185565b5b61253089828a01612408565b9550955050604087013567ffffffffffffffff81111561255357612552612185565b5b61255f89828a0161245e565b9350935050606087013567ffffffffffffffff81111561258257612581612185565b5b61258e89828a016124b9565b9150509295509295509295565b600081519050919050565b600082825260208201905092915050565b6000819050602082019050919050565b6125d0816121aa565b82525050565b60006125e283836125c7565b60208301905092915050565b6000602082019050919050565b60006126068261259b565b61261081856125a6565b935061261b836125b7565b8060005b8381101561264c57815161263388826125d6565b975061263e836125ee565b92505060018101905061261f565b5085935050505092915050565b6000602082019050818103600083015261267381846125fb565b905092915050565b60006020828403121561269157612690612180565b5b600061269f848285016123f3565b91505092915050565b60008115159050919050565b6126bd816126a8565b82525050565b60006020820190506126d860008301846126b4565b92915050565b60008083601f8401126126f4576126f3612249565b5b8235905067ffffffffffffffff8111156127115761271061224e565b5b60208301915083602082028301111561272d5761272c612253565b5b9250929050565b6000806000806000806000806080898b03121561275457612753612180565b5b600089013567ffffffffffffffff81111561277257612771612185565b5b61277e8b828c0161245e565b9850985050602089013567ffffffffffffffff8111156127a1576127a0612185565b5b6127ad8b828c0161245e565b9650965050604089013567ffffffffffffffff8111156127d0576127cf612185565b5b6127dc8b828c0161245e565b9450945050606089013567ffffffffffffffff8111156127ff576127fe612185565b5b61280b8b828c016126de565b92509250509295985092959890939650565b612826816121aa565b82525050565b6000602082019050612841600083018461281d565b92915050565b612850816123d2565b82525050565b600060208201905061286b6000830184612847565b92915050565b6000601f19601f8301169050919050565b7f4e487b7100000000000000000000000000000000000000000000000000000000600052604160045260246000fd5b6128ba82612871565b810181811067ffffffffffffffff821117156128d9576128d8612882565b5b80604052505050565b60006128ec612176565b90506128f882826128b1565b919050565b600067ffffffffffffffff82111561291857612917612882565b5b602082029050602081019050919050565b600061293c612937846128fd565b6128e2565b9050808382526020820190506020840283018581111561295f5761295e612253565b5b835b81811015612988578061297488826121d3565b845260208401935050602081019050612961565b5050509392505050565b600082601f8301126129a7576129a6612249565b5b81356129b7848260208601612929565b91505092915050565b6000602082840312156129d6576129d5612180565b5b600082013567ffffffffffffffff8111156129f4576129f3612185565b5b612a0084828501612992565b91505092915050565b600082825260208201905092915050565b7f496e76616c69642073656e646572206164647265737300000000000000000000600082015250565b6000612a50601683612a09565b9150612a5b82612a1a565b602082019050919050565b60006020820190508181036000830152612a7f81612a43565b9050919050565b7f53656e64657220616c72656164792077686974656c6973746564000000000000600082015250565b6000612abc601a83612a09565b9150612ac782612a86565b602082019050919050565b60006020820190508181036000830152612aeb81612aaf565b9050919050565b600082825260208201905092915050565b600080fd5b82818337600083830152505050565b6000612b238385612af2565b93507f07ffffffffffffffffffffffffffffffffffffffffffffffffffffffffffffff831115612b5657612b55612b03565b5b602083029250612b67838584612b08565b82840190509392505050565b60006040820190508181036000830152612b8e818688612b17565b90508181036020830152612ba3818486612b17565b905095945050505050565b6000819050919050565b6000612bc760208401846121d3565b905092915050565b6000602082019050919050565b6000612be883856125a6565b9350612bf382612bae565b8060005b85811015612c2c57612c098284612bb8565b612c1388826125d6565b9750612c1e83612bcf565b925050600181019050612bf7565b5085925050509392505050565b60006020820190508181036000830152612c54818486612bdc565b90509392505050565b7f43616c6c6572206973206e6f7420616e20617574686f72697a65642073656e6460008201527f6572000000000000000000000000000000000000000000000000000000000000602082015250565b6000612cb9602283612a09565b9150612cc482612c5d565b604082019050919050565b60006020820190508181036000830152612ce881612cac565b9050919050565b7f746172676574436861696e4964206e6f7420737570706f727474656400000000600082015250565b6000612d25601c83612a09565b9150612d3082612cef565b602082019050919050565b60006020820190508181036000830152612d5481612d18565b9050919050565b6000612d678385612a09565b9350612d74838584612b08565b612d7d83612871565b840190509392505050565b600082825260208201905092915050565b6000612da58385612d88565b9350612db2838584612b08565b612dbb83612871565b840190509392505050565b6000612dd560208401846123f3565b905092915050565b612de6816123d2565b82525050565b600080fd5b600080fd5b600080fd5b60008083356001602003843603038112612e1857612e17612df6565b5b83810192508235915060208301925067ffffffffffffffff821115612e4057612e3f612dec565b5b600182023603841315612e5657612e55612df1565b5b509250929050565b600082825260208201905092915050565b6000612e7b8385612e5e565b9350612e88838584612b08565b612e9183612871565b840190509392505050565b60008083356001602003843603038112612eb957612eb8612df6565b5b83810192508235915060208301925067ffffffffffffffff821115612ee157612ee0612dec565b5b600182023603841315612ef757612ef6612df1565b5b509250929050565b600082825260208201905092915050565b6000612f1c8385612eff565b9350612f29838584612b08565b612f3283612871565b840190509392505050565b600060a08301612f506000840184612dc6565b612f5d6000860182612ddd565b50612f6b6020840184612dfb565b8583036020870152612f7e838284612e6f565b92505050612f8f6040840184612dfb565b8583036040870152612fa2838284612e6f565b92505050612fb36060840184612dc6565b612fc06060860182612ddd565b50612fce6080840184612e9c565b8583036080870152612fe1838284612f10565b925050508091505092915050565b600060e082019050613004600083018c61281d565b613011602083018b612847565b818103604083015261302481898b612d5b565b90508181036060830152613039818789612d99565b9050818103608083015261304d8186612f3d565b905061305c60a0830185612847565b61306960c0830184612847565b9a9950505050505050505050565b600060208201905081810360008301526130918184612f3d565b905092915050565b600081519050919050565b60005b838110156130c25780820151818401526020810190506130a7565b838111156130d1576000848401525b50505050565b60006130e282613099565b6130ec8185612d88565b93506130fc8185602086016130a4565b61310581612871565b840191505092915050565b600060c082019050613125600083018b612847565b818103602083015261313881898b612d5b565b90506131476040830188612847565b6131546060830187612847565b8181036080830152613167818587612d99565b905081810360a083015261317b81846130d7565b90509998505050505050505050565b7f4e487b7100000000000000000000000000000000000000000000000000000000600052601160045260246000fd5b60006131c4826123d2565b91506131cf836123d2565b9250827fffffffffffffffffffffffffffffffffffffffffffffffffffffffffffffffff038211156132045761320361318a565b5b828201905092915050565b7f43616c6c6572206973206e6f7420616e20617574686f72697a6564206f72616360008201527f6c65206e6f646500000000000000000000000000000000000000000000000000602082015250565b600061326b602783612a09565b91506132768261320f565b604082019050919050565b6000602082019050818103600083015261329a8161325e565b9050919050565b7f496e76616c6964206d6573736167650000000000000000000000000000000000600082015250565b60006132d7600f83612a09565b91506132e2826132a1565b602082019050919050565b60006020820190508181036000830152613306816132ca565b9050919050565b7f4475706c6963617465207265706f72743a20616c72656164792070726f63657360008201527f7365640000000000000000000000000000000000000000000000000000000000602082015250565b6000613369602383612a09565b91506133748261330d565b604082019050919050565b600060208201905081810360008301526133988161335c565b9050919050565b7f736f75726365436861696e4964206e6f7420737570706f727474656400000000600082015250565b60006133d5601c83612a09565b91506133e08261339f565b602082019050919050565b60006020820190508181036000830152613404816133c8565b9050919050565b7f496e76616c696420746172676574436861696e49642e00000000000000000000600082015250565b6000613441601683612a09565b915061344c8261340b565b602082019050919050565b6000602082019050818103600083015261347081613434565b9050919050565b7f496e76616c696420726563656976657220616464726573732e00000000000000600082015250565b60006134ad601983612a09565b91506134b882613477565b602082019050919050565b600060208201905081810360008301526134dc816134a0565b9050919050565b600067ffffffffffffffff8211156134fe576134fd612882565b5b602082029050602081019050919050565b600080fd5b600067ffffffffffffffff82111561352f5761352e612882565b5b61353882612871565b9050602081019050919050565b600061355861355384613514565b6128e2565b9050828152602081018484840111156135745761357361350f565b5b61357f848285612b08565b509392505050565b600082601f83011261359c5761359b612249565b5b81356135ac848260208601613545565b91505092915050565b60006135c86135c3846134e3565b6128e2565b905080838252602082019050602084028301858111156135eb576135ea612253565b5b835b8181101561363257803567ffffffffffffffff8111156136105761360f612249565b5b80860161361d8982613587565b855260208501945050506020810190506135ed565b5050509392505050565b60006136493684846135b5565b905092915050565b600081519050919050565b600061366782613651565b6136718185612a09565b93506136818185602086016130a4565b61368a81612871565b840191505092915050565b60006136a082613651565b6136aa8185612e5e565b93506136ba8185602086016130a4565b6136c381612871565b840191505092915050565b60006136d982613099565b6136e38185612eff565b93506136f38185602086016130a4565b6136fc81612871565b840191505092915050565b600060a08301600083015161371f6000860182612ddd565b50602083015184820360208601526137378282613695565b915050604083015184820360408601526137518282613695565b91505060608301516137666060860182612ddd565b506080830151848203608086015261377e82826136ce565b9150508091505092915050565b600060c0820190506137a0600083018a612847565b6137ad6020830189612847565b81810360408301526137bf818861365c565b90506137ce606083018761281d565b81810360808301526137e1818587612d99565b905081810360a08301526137f58184613707565b905098975050505050505050565b600060a0820190506138186000830189612847565b6138256020830188612847565b8181036040830152613837818761365c565b9050613846606083018661281d565b8181036080830152613859818486612d99565b9050979650505050505050565b7f416c726561647920696e697469616c697a656400000000000000000000000000600082015250565b600061389c601383612a09565b91506138a782613866565b602082019050919050565b600060208201905081810360008301526138cb8161388f565b9050919050565b7f53656e646572206e6f7420696e2077686974656c697374000000000000000000600082015250565b6000613908601783612a09565b9150613913826138d2565b602082019050919050565b60006020820190508181036000830152613937816138fb565b9050919050565b7f4f776e61626c653a206e6577206f776e657220697320746865207a65726f206160008201527f6464726573730000000000000000000000000000000000000000000000000000602082015250565b600061399a602683612a09565b91506139a58261393e565b604082019050919050565b600060208201905081810360008301526139c98161398d565b9050919050565b7f4f776e61626c653a2063616c6c6572206973206e6f7420746865206f776e6572600082015250565b6000613a06602083612a09565b9150613a11826139d0565b602082019050919050565b60006020820190508181036000830152613a35816139f9565b9050919050565b7f4e487b7100000000000000000000000000000000000000000000000000000000600052603260045260246000fd5b6000613a76826123d2565b91507fffffffffffffffffffffffffffffffffffffffffffffffffffffffffffffffff821415613aa957613aa861318a565b5b600182019050919050565b7f496e76616c696420636861696e49640000000000000000000000000000000000600082015250565b6000613aea600f83612a09565b9150613af582613ab4565b602082019050919050565b60006020820190508181036000830152613b1981613add565b9050919050565b7f4475706c696361746520636861696e4964000000000000000000000000000000600082015250565b6000613b56601183612a09565b9150613b6182613b20565b602082019050919050565b60006020820190508181036000830152613b8581613b49565b9050919050565b7f496e76616c6964206e6f64652061646472657373000000000000000000000000600082015250565b6000613bc2601483612a09565b9150613bcd82613b8c565b602082019050919050565b60006020820190508181036000830152613bf181613bb5565b9050919050565b7f4475706c6963617465206e6f6465206164647265737300000000000000000000600082015250565b6000613c2e601683612a09565b9150613c3982613bf8565b602082019050919050565b60006020820190508181036000830152613c5d81613c21565b9050919050565b7f4e487b7100000000000000000000000000000000000000000000000000000000600052601260045260246000fd5b6000613c9e826123d2565b9150613ca9836123d2565b925082613cb957613cb8613c64565b5b828204905092915050565b600081905092915050565b6000613cdb8385613cc4565b9350613ce8838584612b08565b82840190509392505050565b6000613d01828486613ccf565b91508190509392505050565b6000608082019050613d22600083018761221f565b613d2f602083018661221f565b613d3c604083018561221f565b613d49606083018461221f565b95945050505050565b600081905092915050565b7f1901000000000000000000000000000000000000000000000000000000000000600082015250565b6000613d93600283613d52565b9150613d9e82613d5d565b600282019050919050565b6000819050919050565b613dc4613dbf82612215565b613da9565b82525050565b6000613dd582613d86565b9150613de18285613db3565b602082019150613df18284613db3565b6020820191508190509392505050565b613e0a81612215565b8114613e1557600080fd5b50565b600081359050613e2781613e01565b92915050565b600067ffffffffffffffff821115613e4857613e47612882565b5b613e5182612871565b9050602081019050919050565b6000613e71613e6c84613e2d565b6128e2565b905082815260208101848484011115613e8d57613e8c61350f565b5b613e98848285612b08565b509392505050565b600082601f830112613eb557613eb4612249565b5b8135613ec5848260208601613e5e565b91505092915050565b6000613ed98261218a565b9050919050565b613ee981613ece565b8114613ef457600080fd5b50565b600081359050613f0681613ee0565b92915050565b600080600080600060a08688031215613f2857613f27612180565b5b6000613f3688828901613e18565b9550506020613f47888289016123f3565b9450506040613f58888289016123f3565b935050606086013567ffffffffffffffff811115613f7957613f78612185565b5b613f8588828901613ea0565b9250506080613f9688828901613ef7565b9150509295509295909350565b600080600080600060a08688031215613fbf57613fbe612180565b5b6000613fcd888289016123f3565b955050602086013567ffffffffffffffff811115613fee57613fed612185565b5b613ffa88828901613ea0565b945050604086013567ffffffffffffffff81111561401b5761401a612185565b5b61402788828901613ea0565b9350506060614038888289016123f3565b925050608086013567ffffffffffffffff81111561405957614058612185565b5b61406588828901613587565b9150509295509295909350565b7f4e6f7420656e6f756768207369676e6174757265730000000000000000000000600082015250565b60006140a8601583612a09565b91506140b382614072565b602082019050919050565b600060208201905081810360008301526140d78161409b565b9050919050565b7f496e76616c6964207369676e61747572653a207a65726f206164647265737300600082015250565b6000614114601f83612a09565b915061411f826140de565b602082019050919050565b6000602082019050818103600083015261414381614107565b9050919050565b7f4e6f6e2d756e69717565207369676e6174757265000000000000000000000000600082015250565b6000614180601483612a09565b915061418b8261414a565b602082019050919050565b600060208201905081810360008301526141af81614173565b9050919050565b600060a0820190506141cb600083018861221f565b6141d8602083018761221f565b6141e5604083018661221f565b6141f26060830185612847565b6141ff608083018461281d565b9695505050505050565b7f4e487b7100000000000000000000000000000000000000000000000000000000600052602160045260246000fd5b7f45434453413a20696e76616c6964207369676e61747572650000000000000000600082015250565b600061426e601883612a09565b915061427982614238565b602082019050919050565b6000602082019050818103600083015261429d81614261565b9050919050565b7f45434453413a20696e76616c6964207369676e6174757265206c656e67746800600082015250565b60006142da601f83612a09565b91506142e5826142a4565b602082019050919050565b60006020820190508181036000830152614309816142cd565b9050919050565b7f45434453413a20696e76616c6964207369676e6174757265202773272076616c60008201527f7565000000000000000000000000000000000000000000000000000000000000602082015250565b600061436c602283612a09565b915061437782614310565b604082019050919050565b6000602082019050818103600083015261439b8161435f565b9050919050565b600060ff82169050919050565b6143b8816143a2565b82525050565b60006080820190506143d3600083018761221f565b6143e060208301866143af565b6143ed604083018561221f565b6143fa606083018461221f565b9594505050505056fea2646970667358221220e9c5717b88d1030c069be84396847658320c245372d8071dc793feab5f34ebea64736f6c63430008090033",
  "linkReferences": {},
  "deployedLinkReferences": {}
}