{
  "_format": "hh-sol-artifact-1",
  "contractName": "RampImplementation",
  "sourceName": "contracts/RampImplementation.sol",
  "abi": [
    {
      "inputs": [
        {
          "internalType": "address",
          "name": "signer",
          "type": "address"
        }
      ],
      "name": "InvalidSigner",
      "type": "error"
    },
    {
      "anonymous": false,
      "inputs": [
        {
          "indexed": true,
          "internalType": "bytes32",
          "name": "messageId",
          "type": "bytes32"
        },
        {
          "indexed": false,
          "internalType": "uint256",
          "name": "sourceChainId",
          "type": "uint256"
        },
        {
          "indexed": false,
          "internalType": "uint256",
          "name": "targetChainId",
          "type": "uint256"
        },
        {
          "indexed": false,
          "internalType": "string",
          "name": "sender",
          "type": "string"
        },
        {
          "indexed": false,
          "internalType": "address",
          "name": "receiver",
          "type": "address"
        },
        {
          "indexed": false,
          "internalType": "bytes",
          "name": "message",
          "type": "bytes"
        }
      ],
      "name": "ForwardMessageCalled",
      "type": "event"
    },
    {
      "anonymous": false,
      "inputs": [
        {
          "indexed": true,
          "internalType": "address",
          "name": "previousOwner",
          "type": "address"
        },
        {
          "indexed": true,
          "internalType": "address",
          "name": "newOwner",
          "type": "address"
        }
      ],
      "name": "OwnershipTransferred",
      "type": "event"
    },
    {
      "anonymous": false,
      "inputs": [
        {
          "indexed": true,
          "internalType": "bytes32",
          "name": "messageId",
          "type": "bytes32"
        },
        {
          "indexed": false,
          "internalType": "uint256",
          "name": "epoch",
          "type": "uint256"
        },
        {
          "indexed": true,
          "internalType": "address",
          "name": "sender",
          "type": "address"
        },
        {
          "indexed": false,
          "internalType": "string",
          "name": "receiver",
          "type": "string"
        },
        {
          "indexed": false,
          "internalType": "uint256",
          "name": "sourceChainId",
          "type": "uint256"
        },
        {
          "indexed": false,
          "internalType": "uint256",
          "name": "targetChainId",
          "type": "uint256"
        },
        {
          "indexed": false,
          "internalType": "bytes",
          "name": "message",
          "type": "bytes"
        },
        {
          "indexed": false,
          "internalType": "bytes",
          "name": "tokenTransferMetadataBytes",
          "type": "bytes"
        }
      ],
      "name": "RequestSent",
      "type": "event"
    },
    {
      "inputs": [],
      "name": "epoch",
      "outputs": [
        {
          "internalType": "uint256",
          "name": "",
          "type": "uint256"
        }
      ],
      "stateMutability": "view",
      "type": "function"
    },
    {
      "inputs": [],
      "name": "getInitialized",
      "outputs": [
        {
          "internalType": "bool",
          "name": "",
          "type": "bool"
        }
      ],
      "stateMutability": "view",
      "type": "function"
    },
    {
      "inputs": [],
      "name": "getOracleNodes",
      "outputs": [
        {
          "internalType": "address[]",
          "name": "",
          "type": "address[]"
        }
      ],
      "stateMutability": "view",
      "type": "function"
    },
    {
      "inputs": [
        {
          "internalType": "address[]",
          "name": "initialNodes",
          "type": "address[]"
        }
      ],
      "name": "initialize",
      "outputs": [],
      "stateMutability": "nonpayable",
      "type": "function"
    },
    {
      "inputs": [],
      "name": "owner",
      "outputs": [
        {
          "internalType": "address",
          "name": "",
          "type": "address"
        }
      ],
      "stateMutability": "view",
      "type": "function"
    },
    {
      "inputs": [],
      "name": "renounceOwnership",
      "outputs": [],
      "stateMutability": "nonpayable",
      "type": "function"
    },
    {
      "inputs": [
        {
          "internalType": "uint256",
          "name": "targetChainId",
          "type": "uint256"
        },
        {
          "internalType": "string",
          "name": "receiver",
          "type": "string"
        },
        {
          "internalType": "bytes",
          "name": "message",
          "type": "bytes"
        },
        {
          "components": [
            {
              "internalType": "uint256",
              "name": "targetChainId",
              "type": "uint256"
            },
            {
              "internalType": "string",
              "name": "tokenAddress",
              "type": "string"
            },
            {
              "internalType": "string",
              "name": "symbol",
              "type": "string"
            },
            {
              "internalType": "uint256",
              "name": "amount",
              "type": "uint256"
            },
            {
              "internalType": "bytes",
              "name": "extraData",
              "type": "bytes"
            }
          ],
          "internalType": "struct IRamp.TokenTransferMetadata",
          "name": "tokenTransferMetadata",
          "type": "tuple"
        }
      ],
      "name": "sendRequest",
      "outputs": [
        {
          "internalType": "bytes32",
          "name": "messageId",
          "type": "bytes32"
        }
      ],
      "stateMutability": "nonpayable",
      "type": "function"
    },
    {
      "inputs": [],
      "name": "signatureThreshold",
      "outputs": [
        {
          "internalType": "uint256",
          "name": "",
          "type": "uint256"
        }
      ],
      "stateMutability": "view",
      "type": "function"
    },
    {
      "inputs": [],
      "name": "threshold",
      "outputs": [
        {
          "internalType": "uint256",
          "name": "",
          "type": "uint256"
        }
      ],
      "stateMutability": "view",
      "type": "function"
    },
    {
      "inputs": [
        {
          "internalType": "address",
          "name": "newOwner",
          "type": "address"
        }
      ],
      "name": "transferOwnership",
      "outputs": [],
      "stateMutability": "nonpayable",
      "type": "function"
    },
    {
      "inputs": [
        {
          "internalType": "bytes",
          "name": "reportContextDecoded",
          "type": "bytes"
        },
        {
          "internalType": "bytes",
          "name": "message",
          "type": "bytes"
        },
        {
          "internalType": "bytes",
          "name": "tokenTransferMetadataDecoded",
          "type": "bytes"
        },
        {
          "internalType": "bytes32[]",
          "name": "rs",
          "type": "bytes32[]"
        },
        {
          "internalType": "bytes32[]",
          "name": "ss",
          "type": "bytes32[]"
        },
        {
          "internalType": "bytes32",
          "name": "rawVs",
          "type": "bytes32"
        }
      ],
      "name": "transmit",
      "outputs": [],
      "stateMutability": "nonpayable",
      "type": "function"
    },
    {
      "inputs": [
        {
          "internalType": "address[]",
          "name": "newOracleNodes",
          "type": "address[]"
        }
      ],
      "name": "updateOracleNodes",
      "outputs": [],
      "stateMutability": "nonpayable",
      "type": "function"
    }
  ],
  "bytecode": "0x60806040523480156200001157600080fd5b5062000032620000266200003860201b60201c565b6200004060201b60201c565b62000104565b600033905090565b60008060009054906101000a900473ffffffffffffffffffffffffffffffffffffffff169050816000806101000a81548173ffffffffffffffffffffffffffffffffffffffff021916908373ffffffffffffffffffffffffffffffffffffffff1602179055508173ffffffffffffffffffffffffffffffffffffffff168173ffffffffffffffffffffffffffffffffffffffff167f8be0079c531659141344cd1fd0a4f28419497f9722a3daafe3b4186f6b6457e060405160405180910390a35050565b612efc80620001146000396000f3fe608060405234801561001057600080fd5b50600436106100b45760003560e01c80638da5cb5b116100715780638da5cb5b14610167578063900cf0cf14610185578063a224cee7146101a3578063a82f2e26146101bf578063ee89dab4146101dd578063f2fde38b146101fb576100b4565b80631120f39d146100b9578063220b62e9146100d55780632831feb2146100f157806340fd10b31461012157806342cde4e81461013f578063715018a61461015d575b600080fd5b6100d360048036038101906100ce9190611538565b610217565b005b6100ef60048036038101906100ea91906116b5565b6105fe565b005b61010b600480360381019061010691906117b2565b610654565b6040516101189190611884565b60405180910390f35b610129610735565b604051610136919061198f565b60405180910390f35b6101476107c3565b60405161015491906119c0565b60405180910390f35b6101656107c9565b005b61016f6107dd565b60405161017c91906119ea565b60405180910390f35b61018d610806565b60405161019a91906119c0565b60405180910390f35b6101bd60048036038101906101b89190611af4565b61080c565b005b6101c761088a565b6040516101d491906119c0565b60405180910390f35b6101e5610890565b6040516101f29190611b58565b60405180910390f35b61021560048036038101906102109190611b73565b6108a7565b005b600460003373ffffffffffffffffffffffffffffffffffffffff1673ffffffffffffffffffffffffffffffffffffffff16815260200190815260200160002060009054906101000a900460ff166102a3576040517f08c379a000000000000000000000000000000000000000000000000000000000815260040161029a90611c23565b60405180910390fd5b600087879050116102e9576040517f08c379a00000000000000000000000000000000000000000000000000000000081526004016102e090611c8f565b60405180910390fd5b600083511161032d576040517f08c379a000000000000000000000000000000000000000000000000000000000815260040161032490611cfb565b60405180910390fd5b6000825111610371576040517f08c379a000000000000000000000000000000000000000000000000000000000815260040161036890611d67565b60405180910390fd5b6000602060ff16116103b8576040517f08c379a00000000000000000000000000000000000000000000000000000000081526004016103af90611dd3565b60405180910390fd5b60006103c48a8a61092b565b905060006103d2878761099e565b9050600082604001511161041b576040517f08c379a000000000000000000000000000000000000000000000000000000000815260040161041290611e3f565b60405180910390fd5b600073ffffffffffffffffffffffffffffffffffffffff16826080015173ffffffffffffffffffffffffffffffffffffffff16141561048f576040517f08c379a000000000000000000000000000000000000000000000000000000000815260040161048690611eab565b60405180910390fd5b60008b8b8b8b8b8b6040516020016104ac96959493929190611f18565b6040516020818303038152906040528051906020012090506104d0818787876109fb565b61050f576040517f08c379a000000000000000000000000000000000000000000000000000000000815260040161050690611fdc565b60405180910390fd5b826080015173ffffffffffffffffffffffffffffffffffffffff1663cfd2ae2484602001518560400151866060015187608001518f8f896040518863ffffffff1660e01b815260040161056897969594939291906121a5565b600060405180830381600087803b15801561058257600080fd5b505af1158015610596573d6000803e3d6000fd5b5050505082600001517fc9ee1de27ca4a71f0acb85afb0c733c018d753c6cfea72b687d8afd0cb8552e184602001518560400151866060015187608001518f8f6040516105e89695949392919061221d565b60405180910390a2505050505050505050505050565b610606610d78565b610650828280806020026020016040519081016040528093929190818152602001838360200280828437600081840152601f19601f82011690508083019250505050505050610df6565b5050565b600033878787878787426040516020016106759897969594939291906124a5565b6040516020818303038152906040528051906020012090506000826040516020016106a0919061251f565b60405160208183030381529060405290503373ffffffffffffffffffffffffffffffffffffffff16827f362bbf8bca7bcf02421883424183d71fb91b906334136bc65a59b278fbf2995d6006548a8a468e8c8c8a60405161070898979695949392919061257a565b60405180910390a36001600660008282546107239190612623565b92505081905550509695505050505050565b606060038054806020026020016040519081016040528092919081815260200182805480156107b957602002820191906000526020600020905b8160009054906101000a900473ffffffffffffffffffffffffffffffffffffffff1673ffffffffffffffffffffffffffffffffffffffff168152602001906001019080831161076f575b5050505050905090565b60025481565b6107d1610d78565b6107db6000611131565b565b60008060009054906101000a900473ffffffffffffffffffffffffffffffffffffffff16905090565b60065481565b610814610d78565b600160149054906101000a900460ff1615610864576040517f08c379a000000000000000000000000000000000000000000000000000000000815260040161085b906126c5565b60405180910390fd5b60018060146101000a81548160ff02191690831515021790555061088781610df6565b50565b60055481565b6000600160149054906101000a900460ff16905090565b6108af610d78565b600073ffffffffffffffffffffffffffffffffffffffff168173ffffffffffffffffffffffffffffffffffffffff16141561091f576040517f08c379a000000000000000000000000000000000000000000000000000000000815260040161091690612757565b60405180910390fd5b61092881611131565b50565b610933611285565b6000806000806000878781019061094a919061285b565b945094509450945094506040518060a001604052808681526020018581526020018481526020018381526020018273ffffffffffffffffffffffffffffffffffffffff168152509550505050505092915050565b6109a66112cd565b600080600080600087878101906109bd9190612993565b945094509450945094506040518060a00160405280868152602001858152602001848152602001838152602001828152509550505050505092915050565b60008251845114610a41576040517f08c379a0000000000000000000000000000000000000000000000000000000008152600401610a3890612aae565b60405180910390fd5b60038054905084511115610a8a576040517f08c379a0000000000000000000000000000000000000000000000000000000008152600401610a8190612b1a565b60405180910390fd5b600080855167ffffffffffffffff811115610aa857610aa76113c4565b5b604051908082528060200260200182016040528015610ad65781602001602082028036833780820191505090505b50905060005b8651811015610d65576000858260208110610afa57610af9612b3a565b5b1a60f81b60f81c9050601b8160ff161015610b1f57601b81610b1c9190612b76565b90505b600060018a838b8681518110610b3857610b37612b3a565b5b60200260200101518b8781518110610b5357610b52612b3a565b5b602002602001015160405160008152602001604052604051610b789493929190612bbc565b6020604051602081039080840390855afa158015610b9a573d6000803e3d6000fd5b505050602060405103519050600073ffffffffffffffffffffffffffffffffffffffff168173ffffffffffffffffffffffffffffffffffffffff161415610c16576040517f08c379a0000000000000000000000000000000000000000000000000000000008152600401610c0d90612c4d565b60405180910390fd5b610c2084826111f5565b15610c60576040517f08c379a0000000000000000000000000000000000000000000000000000000008152600401610c5790612cb9565b60405180910390fd5b80848481518110610c7457610c73612b3a565b5b602002602001019073ffffffffffffffffffffffffffffffffffffffff16908173ffffffffffffffffffffffffffffffffffffffff1681525050600460008273ffffffffffffffffffffffffffffffffffffffff1673ffffffffffffffffffffffffffffffffffffffff16815260200190815260200160002060009054906101000a900460ff1615610d13578480610d0b90612cd9565b955050610d50565b806040517fbf18af43000000000000000000000000000000000000000000000000000000008152600401610d4791906119ea565b60405180910390fd5b50508080610d5d90612cd9565b915050610adc565b5060055482101592505050949350505050565b610d8061127d565b73ffffffffffffffffffffffffffffffffffffffff16610d9e6107dd565b73ffffffffffffffffffffffffffffffffffffffff1614610df4576040517f08c379a0000000000000000000000000000000000000000000000000000000008152600401610deb90612d6e565b60405180910390fd5b565b60005b600380549050811015610eaf5760006004600060038481548110610e2057610e1f612b3a565b5b9060005260206000200160009054906101000a900473ffffffffffffffffffffffffffffffffffffffff1673ffffffffffffffffffffffffffffffffffffffff1673ffffffffffffffffffffffffffffffffffffffff16815260200190815260200160002060006101000a81548160ff0219169083151502179055508080610ea790612cd9565b915050610df9565b5060036000610ebe91906112fc565b60005b81518110156110fd57600073ffffffffffffffffffffffffffffffffffffffff16828281518110610ef557610ef4612b3a565b5b602002602001015173ffffffffffffffffffffffffffffffffffffffff161415610f54576040517f08c379a0000000000000000000000000000000000000000000000000000000008152600401610f4b90612dda565b60405180910390fd5b60046000838381518110610f6b57610f6a612b3a565b5b602002602001015173ffffffffffffffffffffffffffffffffffffffff1673ffffffffffffffffffffffffffffffffffffffff16815260200190815260200160002060009054906101000a900460ff1615610ffb576040517f08c379a0000000000000000000000000000000000000000000000000000000008152600401610ff290612e46565b60405180910390fd5b60038282815181106110105761100f612b3a565b5b60200260200101519080600181540180825580915050600190039060005260206000200160009091909190916101000a81548173ffffffffffffffffffffffffffffffffffffffff021916908373ffffffffffffffffffffffffffffffffffffffff16021790555060016004600084848151811061109157611090612b3a565b5b602002602001015173ffffffffffffffffffffffffffffffffffffffff1673ffffffffffffffffffffffffffffffffffffffff16815260200190815260200160002060006101000a81548160ff02191690831515021790555080806110f590612cd9565b915050610ec1565b506001600260016003805490506111149190612623565b61111e9190612e95565b6111289190612623565b60058190555050565b60008060009054906101000a900473ffffffffffffffffffffffffffffffffffffffff169050816000806101000a81548173ffffffffffffffffffffffffffffffffffffffff021916908373ffffffffffffffffffffffffffffffffffffffff1602179055508173ffffffffffffffffffffffffffffffffffffffff168173ffffffffffffffffffffffffffffffffffffffff167f8be0079c531659141344cd1fd0a4f28419497f9722a3daafe3b4186f6b6457e060405160405180910390a35050565b600080600090505b83518110156112715783818151811061121957611218612b3a565b5b602002602001015173ffffffffffffffffffffffffffffffffffffffff168373ffffffffffffffffffffffffffffffffffffffff16141561125e576001915050611277565b808061126990612cd9565b9150506111fd565b50600090505b92915050565b600033905090565b6040518060a0016040528060008019168152602001600081526020016000815260200160608152602001600073ffffffffffffffffffffffffffffffffffffffff1681525090565b6040518060a0016040528060008152602001606081526020016060815260200160008152602001606081525090565b508054600082559060005260206000209081019061131a919061131d565b50565b5b8082111561133657600081600090555060010161131e565b5090565b6000604051905090565b600080fd5b600080fd5b600080fd5b600080fd5b600080fd5b60008083601f8401126113735761137261134e565b5b8235905067ffffffffffffffff8111156113905761138f611353565b5b6020830191508360018202830111156113ac576113ab611358565b5b9250929050565b6000601f19601f8301169050919050565b7f4e487b7100000000000000000000000000000000000000000000000000000000600052604160045260246000fd5b6113fc826113b3565b810181811067ffffffffffffffff8211171561141b5761141a6113c4565b5b80604052505050565b600061142e61133a565b905061143a82826113f3565b919050565b600067ffffffffffffffff82111561145a576114596113c4565b5b602082029050602081019050919050565b6000819050919050565b61147e8161146b565b811461148957600080fd5b50565b60008135905061149b81611475565b92915050565b60006114b46114af8461143f565b611424565b905080838252602082019050602084028301858111156114d7576114d6611358565b5b835b8181101561150057806114ec888261148c565b8452602084019350506020810190506114d9565b5050509392505050565b600082601f83011261151f5761151e61134e565b5b813561152f8482602086016114a1565b91505092915050565b600080600080600080600080600060c08a8c03121561155a57611559611344565b5b60008a013567ffffffffffffffff81111561157857611577611349565b5b6115848c828d0161135d565b995099505060208a013567ffffffffffffffff8111156115a7576115a6611349565b5b6115b38c828d0161135d565b975097505060408a013567ffffffffffffffff8111156115d6576115d5611349565b5b6115e28c828d0161135d565b955095505060608a013567ffffffffffffffff81111561160557611604611349565b5b6116118c828d0161150a565b93505060808a013567ffffffffffffffff81111561163257611631611349565b5b61163e8c828d0161150a565b92505060a061164f8c828d0161148c565b9150509295985092959850929598565b60008083601f8401126116755761167461134e565b5b8235905067ffffffffffffffff81111561169257611691611353565b5b6020830191508360208202830111156116ae576116ad611358565b5b9250929050565b600080602083850312156116cc576116cb611344565b5b600083013567ffffffffffffffff8111156116ea576116e9611349565b5b6116f68582860161165f565b92509250509250929050565b6000819050919050565b61171581611702565b811461172057600080fd5b50565b6000813590506117328161170c565b92915050565b60008083601f84011261174e5761174d61134e565b5b8235905067ffffffffffffffff81111561176b5761176a611353565b5b60208301915083600182028301111561178757611786611358565b5b9250929050565b600080fd5b600060a082840312156117a9576117a861178e565b5b81905092915050565b600080600080600080608087890312156117cf576117ce611344565b5b60006117dd89828a01611723565b965050602087013567ffffffffffffffff8111156117fe576117fd611349565b5b61180a89828a01611738565b9550955050604087013567ffffffffffffffff81111561182d5761182c611349565b5b61183989828a0161135d565b9350935050606087013567ffffffffffffffff81111561185c5761185b611349565b5b61186889828a01611793565b9150509295509295509295565b61187e8161146b565b82525050565b60006020820190506118996000830184611875565b92915050565b600081519050919050565b600082825260208201905092915050565b6000819050602082019050919050565b600073ffffffffffffffffffffffffffffffffffffffff82169050919050565b60006118f6826118cb565b9050919050565b611906816118eb565b82525050565b600061191883836118fd565b60208301905092915050565b6000602082019050919050565b600061193c8261189f565b61194681856118aa565b9350611951836118bb565b8060005b83811015611982578151611969888261190c565b975061197483611924565b925050600181019050611955565b5085935050505092915050565b600060208201905081810360008301526119a98184611931565b905092915050565b6119ba81611702565b82525050565b60006020820190506119d560008301846119b1565b92915050565b6119e4816118eb565b82525050565b60006020820190506119ff60008301846119db565b92915050565b600067ffffffffffffffff821115611a2057611a1f6113c4565b5b602082029050602081019050919050565b611a3a816118eb565b8114611a4557600080fd5b50565b600081359050611a5781611a31565b92915050565b6000611a70611a6b84611a05565b611424565b90508083825260208201905060208402830185811115611a9357611a92611358565b5b835b81811015611abc5780611aa88882611a48565b845260208401935050602081019050611a95565b5050509392505050565b600082601f830112611adb57611ada61134e565b5b8135611aeb848260208601611a5d565b91505092915050565b600060208284031215611b0a57611b09611344565b5b600082013567ffffffffffffffff811115611b2857611b27611349565b5b611b3484828501611ac6565b91505092915050565b60008115159050919050565b611b5281611b3d565b82525050565b6000602082019050611b6d6000830184611b49565b92915050565b600060208284031215611b8957611b88611344565b5b6000611b9784828501611a48565b91505092915050565b600082825260208201905092915050565b7f43616c6c6572206973206e6f7420616e20617574686f72697a6564206f72616360008201527f6c65206e6f646500000000000000000000000000000000000000000000000000602082015250565b6000611c0d602783611ba0565b9150611c1882611bb1565b604082019050919050565b60006020820190508181036000830152611c3c81611c00565b9050919050565b7f696e76616c696465206d65737361676500000000000000000000000000000000600082015250565b6000611c79601083611ba0565b9150611c8482611c43565b602082019050919050565b60006020820190508181036000830152611ca881611c6c565b9050919050565b7f696e76616c696465207273000000000000000000000000000000000000000000600082015250565b6000611ce5600b83611ba0565b9150611cf082611caf565b602082019050919050565b60006020820190508181036000830152611d1481611cd8565b9050919050565b7f696e76616c696465207373000000000000000000000000000000000000000000600082015250565b6000611d51600b83611ba0565b9150611d5c82611d1b565b602082019050919050565b60006020820190508181036000830152611d8081611d44565b9050919050565b7f696e76616c696465207276000000000000000000000000000000000000000000600082015250565b6000611dbd600b83611ba0565b9150611dc882611d87565b602082019050919050565b60006020820190508181036000830152611dec81611db0565b9050919050565b7f496e76616c696420746172676574436861696e49642e00000000000000000000600082015250565b6000611e29601683611ba0565b9150611e3482611df3565b602082019050919050565b60006020820190508181036000830152611e5881611e1c565b9050919050565b7f496e76616c696420726563656976657220616464726573732e00000000000000600082015250565b6000611e95601983611ba0565b9150611ea082611e5f565b602082019050919050565b60006020820190508181036000830152611ec481611e88565b9050919050565b600082825260208201905092915050565b82818337600083830152505050565b6000611ef78385611ecb565b9350611f04838584611edc565b611f0d836113b3565b840190509392505050565b60006060820190508181036000830152611f3381888a611eeb565b90508181036020830152611f48818688611eeb565b90508181036040830152611f5d818486611eeb565b9050979650505050505050565b7f496e73756666696369656e74206f7220696e76616c6964207369676e6174757260008201527f6573000000000000000000000000000000000000000000000000000000000000602082015250565b6000611fc6602283611ba0565b9150611fd182611f6a565b604082019050919050565b60006020820190508181036000830152611ff581611fb9565b9050919050565b600081519050919050565b60005b8381101561202557808201518184015260208101905061200a565b83811115612034576000848401525b50505050565b600061204582611ffc565b61204f8185611ba0565b935061205f818560208601612007565b612068816113b3565b840191505092915050565b61207c81611702565b82525050565b600082825260208201905092915050565b600061209e82611ffc565b6120a88185612082565b93506120b8818560208601612007565b6120c1816113b3565b840191505092915050565b600081519050919050565b600082825260208201905092915050565b60006120f3826120cc565b6120fd81856120d7565b935061210d818560208601612007565b612116816113b3565b840191505092915050565b600060a0830160008301516121396000860182612073565b50602083015184820360208601526121518282612093565b9150506040830151848203604086015261216b8282612093565b91505060608301516121806060860182612073565b506080830151848203608086015261219882826120e8565b9150508091505092915050565b600060c0820190506121ba600083018a6119b1565b6121c760208301896119b1565b81810360408301526121d9818861203a565b90506121e860608301876119db565b81810360808301526121fb818587611eeb565b905081810360a083015261220f8184612121565b905098975050505050505050565b600060a08201905061223260008301896119b1565b61223f60208301886119b1565b8181036040830152612251818761203a565b905061226060608301866119db565b8181036080830152612273818486611eeb565b9050979650505050505050565b600061228c8385611ba0565b9350612299838584611edc565b6122a2836113b3565b840190509392505050565b60006122bc6020840184611723565b905092915050565b600080fd5b600080fd5b600080fd5b600080833560016020038436030381126122f0576122ef6122ce565b5b83810192508235915060208301925067ffffffffffffffff821115612318576123176122c4565b5b60018202360384131561232e5761232d6122c9565b5b509250929050565b60006123428385612082565b935061234f838584611edc565b612358836113b3565b840190509392505050565b600080833560016020038436030381126123805761237f6122ce565b5b83810192508235915060208301925067ffffffffffffffff8211156123a8576123a76122c4565b5b6001820236038413156123be576123bd6122c9565b5b509250929050565b60006123d283856120d7565b93506123df838584611edc565b6123e8836113b3565b840190509392505050565b600060a0830161240660008401846122ad565b6124136000860182612073565b5061242160208401846122d3565b8583036020870152612434838284612336565b9250505061244560408401846122d3565b8583036040870152612458838284612336565b9250505061246960608401846122ad565b6124766060860182612073565b506124846080840184612363565b85830360808701526124978382846123c6565b925050508091505092915050565b600060c0820190506124ba600083018b6119db565b6124c7602083018a6119b1565b81810360408301526124da81888a612280565b905081810360608301526124ef818688611eeb565b9050818103608083015261250381856123f3565b905061251260a08301846119b1565b9998505050505050505050565b6000602082019050818103600083015261253981846123f3565b905092915050565b600061254c826120cc565b6125568185611ecb565b9350612566818560208601612007565b61256f816113b3565b840191505092915050565b600060c08201905061258f600083018b6119b1565b81810360208301526125a281898b612280565b90506125b160408301886119b1565b6125be60608301876119b1565b81810360808301526125d1818587611eeb565b905081810360a08301526125e58184612541565b90509998505050505050505050565b7f4e487b7100000000000000000000000000000000000000000000000000000000600052601160045260246000fd5b600061262e82611702565b915061263983611702565b9250827fffffffffffffffffffffffffffffffffffffffffffffffffffffffffffffffff0382111561266e5761266d6125f4565b5b828201905092915050565b7f416c726561647920696e697469616c697a656400000000000000000000000000600082015250565b60006126af601383611ba0565b91506126ba82612679565b602082019050919050565b600060208201905081810360008301526126de816126a2565b9050919050565b7f4f776e61626c653a206e6577206f776e657220697320746865207a65726f206160008201527f6464726573730000000000000000000000000000000000000000000000000000602082015250565b6000612741602683611ba0565b915061274c826126e5565b604082019050919050565b6000602082019050818103600083015261277081612734565b9050919050565b600080fd5b600067ffffffffffffffff821115612797576127966113c4565b5b6127a0826113b3565b9050602081019050919050565b60006127c06127bb8461277c565b611424565b9050828152602081018484840111156127dc576127db612777565b5b6127e7848285611edc565b509392505050565b600082601f8301126128045761280361134e565b5b81356128148482602086016127ad565b91505092915050565b6000612828826118cb565b9050919050565b6128388161281d565b811461284357600080fd5b50565b6000813590506128558161282f565b92915050565b600080600080600060a0868803121561287757612876611344565b5b60006128858882890161148c565b955050602061289688828901611723565b94505060406128a788828901611723565b935050606086013567ffffffffffffffff8111156128c8576128c7611349565b5b6128d4888289016127ef565b92505060806128e588828901612846565b9150509295509295909350565b600067ffffffffffffffff82111561290d5761290c6113c4565b5b612916826113b3565b9050602081019050919050565b6000612936612931846128f2565b611424565b90508281526020810184848401111561295257612951612777565b5b61295d848285611edc565b509392505050565b600082601f83011261297a5761297961134e565b5b813561298a848260208601612923565b91505092915050565b600080600080600060a086880312156129af576129ae611344565b5b60006129bd88828901611723565b955050602086013567ffffffffffffffff8111156129de576129dd611349565b5b6129ea888289016127ef565b945050604086013567ffffffffffffffff811115612a0b57612a0a611349565b5b612a17888289016127ef565b9350506060612a2888828901611723565b925050608086013567ffffffffffffffff811115612a4957612a48611349565b5b612a5588828901612965565b9150509295509295909350565b7f4d69736d617463686564207369676e6174757265206172726179730000000000600082015250565b6000612a98601b83611ba0565b9150612aa382612a62565b602082019050919050565b60006020820190508181036000830152612ac781612a8b565b9050919050565b7f546f6f206d616e79207369676e61747572657300000000000000000000000000600082015250565b6000612b04601383611ba0565b9150612b0f82612ace565b602082019050919050565b60006020820190508181036000830152612b3381612af7565b9050919050565b7f4e487b7100000000000000000000000000000000000000000000000000000000600052603260045260246000fd5b600060ff82169050919050565b6000612b8182612b69565b9150612b8c83612b69565b92508260ff03821115612ba257612ba16125f4565b5b828201905092915050565b612bb681612b69565b82525050565b6000608082019050612bd16000830187611875565b612bde6020830186612bad565b612beb6040830185611875565b612bf86060830184611875565b95945050505050565b7f496e76616c6964207369676e61747572653a207a65726f206164647265737300600082015250565b6000612c37601f83611ba0565b9150612c4282612c01565b602082019050919050565b60006020820190508181036000830152612c6681612c2a565b9050919050565b7f6e6f6e2d756e69717565207369676e6174757265000000000000000000000000600082015250565b6000612ca3601483611ba0565b9150612cae82612c6d565b602082019050919050565b60006020820190508181036000830152612cd281612c96565b9050919050565b6000612ce482611702565b91507fffffffffffffffffffffffffffffffffffffffffffffffffffffffffffffffff821415612d1757612d166125f4565b5b600182019050919050565b7f4f776e61626c653a2063616c6c6572206973206e6f7420746865206f776e6572600082015250565b6000612d58602083611ba0565b9150612d6382612d22565b602082019050919050565b60006020820190508181036000830152612d8781612d4b565b9050919050565b7f496e76616c6964206e6f64652061646472657373000000000000000000000000600082015250565b6000612dc4601483611ba0565b9150612dcf82612d8e565b602082019050919050565b60006020820190508181036000830152612df381612db7565b9050919050565b7f4475706c6963617465206e6f6465206164647265737300000000000000000000600082015250565b6000612e30601683611ba0565b9150612e3b82612dfa565b602082019050919050565b60006020820190508181036000830152612e5f81612e23565b9050919050565b7f4e487b7100000000000000000000000000000000000000000000000000000000600052601260045260246000fd5b6000612ea082611702565b9150612eab83611702565b925082612ebb57612eba612e66565b5b82820490509291505056fea2646970667358221220839d29e016133b5eafecfce79cfa9880ab61e4afd3a59a79d838a1ee6951212064736f6c63430008090033",
  "linkReferences": {},
  "deployedLinkReferences": {}
}