{
  "_format": "hh-sol-artifact-1",
  "contractName": "RampImplementation",
  "sourceName": "contracts/RampImplementation.sol",
  "abi": [
    {
      "inputs": [
        {
          "internalType": "address",
          "name": "signer",
          "type": "address"
        }
      ],
      "name": "InvalidSigner",
      "type": "error"
    },
    {
      "anonymous": false,
      "inputs": [
        {
          "indexed": true,
          "internalType": "bytes32",
          "name": "messageId",
          "type": "bytes32"
        },
        {
          "indexed": false,
          "internalType": "bytes",
          "name": "message",
          "type": "bytes"
        },
        {
          "components": [
            {
              "internalType": "string",
              "name": "swapId",
              "type": "string"
            },
            {
              "internalType": "uint256",
              "name": "targetChainId",
              "type": "uint256"
            },
            {
              "internalType": "string",
              "name": "targetContractAddress",
              "type": "string"
            },
            {
              "internalType": "string",
              "name": "tokenAddress",
              "type": "string"
            },
            {
              "internalType": "string",
              "name": "originToken",
              "type": "string"
            },
            {
              "internalType": "uint256",
              "name": "amount",
              "type": "uint256"
            }
          ],
          "indexed": false,
          "internalType": "struct IRamp.TokenAmount",
          "name": "tokenAmount",
          "type": "tuple"
        },
        {
          "indexed": false,
          "internalType": "uint256",
          "name": "sourceChainId",
          "type": "uint256"
        },
        {
          "indexed": false,
          "internalType": "string",
          "name": "sender",
          "type": "string"
        },
        {
          "indexed": false,
          "internalType": "address",
          "name": "receiver",
          "type": "address"
        }
      ],
      "name": "ForwardMessageCalled",
      "type": "event"
    },
    {
      "anonymous": false,
      "inputs": [
        {
          "indexed": true,
          "internalType": "address",
          "name": "previousOwner",
          "type": "address"
        },
        {
          "indexed": true,
          "internalType": "address",
          "name": "newOwner",
          "type": "address"
        }
      ],
      "name": "OwnershipTransferred",
      "type": "event"
    },
    {
      "anonymous": false,
      "inputs": [
        {
          "indexed": true,
          "internalType": "bytes32",
          "name": "messageId",
          "type": "bytes32"
        },
        {
          "indexed": false,
          "internalType": "uint256",
          "name": "epoch",
          "type": "uint256"
        },
        {
          "indexed": true,
          "internalType": "address",
          "name": "sender",
          "type": "address"
        },
        {
          "indexed": false,
          "internalType": "string",
          "name": "receiver",
          "type": "string"
        },
        {
          "indexed": false,
          "internalType": "uint256",
          "name": "targetChainId",
          "type": "uint256"
        },
        {
          "indexed": false,
          "internalType": "bytes",
          "name": "message",
          "type": "bytes"
        },
        {
          "indexed": false,
          "internalType": "string",
          "name": "targetContractAddress",
          "type": "string"
        },
        {
          "indexed": false,
          "internalType": "string",
          "name": "tokenAddress",
          "type": "string"
        },
        {
          "indexed": false,
          "internalType": "uint256",
          "name": "amount",
          "type": "uint256"
        }
      ],
      "name": "RequestSent",
      "type": "event"
    },
    {
      "inputs": [],
      "name": "epoch",
      "outputs": [
        {
          "internalType": "uint256",
          "name": "",
          "type": "uint256"
        }
      ],
      "stateMutability": "view",
      "type": "function"
    },
    {
      "inputs": [],
      "name": "getInitialized",
      "outputs": [
        {
          "internalType": "bool",
          "name": "",
          "type": "bool"
        }
      ],
      "stateMutability": "view",
      "type": "function"
    },
    {
      "inputs": [],
      "name": "getOracleNodes",
      "outputs": [
        {
          "internalType": "address[]",
          "name": "",
          "type": "address[]"
        }
      ],
      "stateMutability": "view",
      "type": "function"
    },
    {
      "inputs": [
        {
          "internalType": "address[]",
          "name": "initialNodes",
          "type": "address[]"
        }
      ],
      "name": "initialize",
      "outputs": [],
      "stateMutability": "nonpayable",
      "type": "function"
    },
    {
      "inputs": [],
      "name": "owner",
      "outputs": [
        {
          "internalType": "address",
          "name": "",
          "type": "address"
        }
      ],
      "stateMutability": "view",
      "type": "function"
    },
    {
      "inputs": [],
      "name": "renounceOwnership",
      "outputs": [],
      "stateMutability": "nonpayable",
      "type": "function"
    },
    {
      "inputs": [
        {
          "internalType": "uint256",
          "name": "targetChainId",
          "type": "uint256"
        },
        {
          "internalType": "string",
          "name": "receiver",
          "type": "string"
        },
        {
          "internalType": "bytes",
          "name": "message",
          "type": "bytes"
        },
        {
          "components": [
            {
              "internalType": "string",
              "name": "swapId",
              "type": "string"
            },
            {
              "internalType": "uint256",
              "name": "targetChainId",
              "type": "uint256"
            },
            {
              "internalType": "string",
              "name": "targetContractAddress",
              "type": "string"
            },
            {
              "internalType": "string",
              "name": "tokenAddress",
              "type": "string"
            },
            {
              "internalType": "string",
              "name": "originToken",
              "type": "string"
            },
            {
              "internalType": "uint256",
              "name": "amount",
              "type": "uint256"
            }
          ],
          "internalType": "struct IRamp.TokenAmount",
          "name": "tokenAmount",
          "type": "tuple"
        }
      ],
      "name": "sendRequest",
      "outputs": [
        {
          "internalType": "bytes32",
          "name": "messageId",
          "type": "bytes32"
        }
      ],
      "stateMutability": "nonpayable",
      "type": "function"
    },
    {
      "inputs": [],
      "name": "signatureThreshold",
      "outputs": [
        {
          "internalType": "uint256",
          "name": "",
          "type": "uint256"
        }
      ],
      "stateMutability": "view",
      "type": "function"
    },
    {
      "inputs": [],
      "name": "threshold",
      "outputs": [
        {
          "internalType": "uint256",
          "name": "",
          "type": "uint256"
        }
      ],
      "stateMutability": "view",
      "type": "function"
    },
    {
      "inputs": [
        {
          "internalType": "address",
          "name": "newOwner",
          "type": "address"
        }
      ],
      "name": "transferOwnership",
      "outputs": [],
      "stateMutability": "nonpayable",
      "type": "function"
    },
    {
      "inputs": [
        {
          "internalType": "bytes",
          "name": "reportContextDecoded",
          "type": "bytes"
        },
        {
          "internalType": "bytes",
          "name": "message",
          "type": "bytes"
        },
        {
          "internalType": "bytes",
          "name": "tokenAmountDecoded",
          "type": "bytes"
        },
        {
          "internalType": "bytes32[]",
          "name": "rs",
          "type": "bytes32[]"
        },
        {
          "internalType": "bytes32[]",
          "name": "ss",
          "type": "bytes32[]"
        },
        {
          "internalType": "bytes32",
          "name": "rawVs",
          "type": "bytes32"
        }
      ],
      "name": "transmit",
      "outputs": [],
      "stateMutability": "nonpayable",
      "type": "function"
    },
    {
      "inputs": [
        {
          "internalType": "address[]",
          "name": "newOracleNodes",
          "type": "address[]"
        }
      ],
      "name": "updateOracleNodes",
      "outputs": [],
      "stateMutability": "nonpayable",
      "type": "function"
    }
  ],
  "bytecode": "0x60806040523480156200001157600080fd5b5062000032620000266200003860201b60201c565b6200004060201b60201c565b62000104565b600033905090565b60008060009054906101000a900473ffffffffffffffffffffffffffffffffffffffff169050816000806101000a81548173ffffffffffffffffffffffffffffffffffffffff021916908373ffffffffffffffffffffffffffffffffffffffff1602179055508173ffffffffffffffffffffffffffffffffffffffff168173ffffffffffffffffffffffffffffffffffffffff167f8be0079c531659141344cd1fd0a4f28419497f9722a3daafe3b4186f6b6457e060405160405180910390a35050565b612f6780620001146000396000f3fe608060405234801561001057600080fd5b50600436106100b45760003560e01c80638da5cb5b116100715780638da5cb5b14610167578063900cf0cf14610185578063a224cee7146101a3578063a82f2e26146101bf578063ee89dab4146101dd578063f2fde38b146101fb576100b4565b80631120f39d146100b9578063220b62e9146100d557806340fd10b3146100f157806342cde4e81461010f578063715018a61461012d5780637202314014610137575b600080fd5b6100d360048036038101906100ce919061161a565b610217565b005b6100ef60048036038101906100ea9190611797565b610688565b005b6100f96106de565b60405161010691906118d4565b60405180910390f35b61011761076c565b604051610124919061190f565b60405180910390f35b610135610772565b005b610151600480360381019061014c91906119d0565b610786565b60405161015e9190611aa2565b60405180910390f35b61016f6108ae565b60405161017c9190611acc565b60405180910390f35b61018d6108d7565b60405161019a919061190f565b60405180910390f35b6101bd60048036038101906101b89190611bd6565b6108dd565b005b6101c761095b565b6040516101d4919061190f565b60405180910390f35b6101e5610961565b6040516101f29190611c3a565b60405180910390f35b61021560048036038101906102109190611c55565b610978565b005b600460003373ffffffffffffffffffffffffffffffffffffffff1673ffffffffffffffffffffffffffffffffffffffff16815260200190815260200160002060009054906101000a900460ff166102a3576040517f08c379a000000000000000000000000000000000000000000000000000000000815260040161029a90611d05565b60405180910390fd5b600087879050116102e9576040517f08c379a00000000000000000000000000000000000000000000000000000000081526004016102e090611d71565b60405180910390fd5b600083511161032d576040517f08c379a000000000000000000000000000000000000000000000000000000000815260040161032490611ddd565b60405180910390fd5b6000825111610371576040517f08c379a000000000000000000000000000000000000000000000000000000000815260040161036890611e49565b60405180910390fd5b6000602060ff16116103b8576040517f08c379a00000000000000000000000000000000000000000000000000000000081526004016103af90611eb5565b60405180910390fd5b60006103c48a8a6109fc565b905060006103d28787610a6f565b905060008160a001511161041b576040517f08c379a000000000000000000000000000000000000000000000000000000000815260040161041290611f21565b60405180910390fd5b6000816020015111610462576040517f08c379a000000000000000000000000000000000000000000000000000000000815260040161045990611f8d565b60405180910390fd5b60008260400151116104a9576040517f08c379a00000000000000000000000000000000000000000000000000000000081526004016104a090611ff9565b60405180910390fd5b600073ffffffffffffffffffffffffffffffffffffffff16826080015173ffffffffffffffffffffffffffffffffffffffff16141561051d576040517f08c379a000000000000000000000000000000000000000000000000000000000815260040161051490611f8d565b60405180910390fd5b60008b8b8b8b8b8b60405160200161053a96959493929190612066565b60405160208183030381529060405280519060200120905061055e81878787610ad6565b61059d576040517f08c379a00000000000000000000000000000000000000000000000000000000081526004016105949061212a565b60405180910390fd5b826080015173ffffffffffffffffffffffffffffffffffffffff1663e38c1f6f84602001518560400151858e8e89606001518a608001516040518863ffffffff1660e01b81526004016105f697969594939291906122b8565b600060405180830381600087803b15801561061057600080fd5b505af1158015610624573d6000803e3d6000fd5b5050505082600001517f660c5a3bf5488e4c3eddc3963b352fb0e1b157235df8226bfed906a99ad8d1268b8b8587602001518860600151896080015160405161067296959493929190612330565b60405180910390a2505050505050505050505050565b610690610e53565b6106da828280806020026020016040519081016040528093929190818152602001838360200280828437600081840152601f19601f82011690508083019250505050505050610ed1565b5050565b6060600380548060200260200160405190810160405280929190818152602001828054801561076257602002820191906000526020600020905b8160009054906101000a900473ffffffffffffffffffffffffffffffffffffffff1673ffffffffffffffffffffffffffffffffffffffff1681526020019060010190808311610718575b5050505050905090565b60025481565b61077a610e53565b610784600061120c565b565b6000808260a00135116107ce576040517f08c379a00000000000000000000000000000000000000000000000000000000081526004016107c590611f21565b60405180910390fd5b33878787878787426040516020016107ed989796959493929190612553565b6040516020818303038152906040528051906020012090503373ffffffffffffffffffffffffffffffffffffffff16817f63c88cd068404382b5a8e7f838797d533b97fe429a581f8aba71defc3e91414560065489898c8a8a8a806040019061085691906125dc565b8c806060019061086691906125dc565b8e60a001356040516108829b9a9998979695949392919061263f565b60405180910390a360016006600082825461089d9190612701565b925050819055509695505050505050565b60008060009054906101000a900473ffffffffffffffffffffffffffffffffffffffff16905090565b60065481565b6108e5610e53565b600160149054906101000a900460ff1615610935576040517f08c379a000000000000000000000000000000000000000000000000000000000815260040161092c906127a3565b60405180910390fd5b60018060146101000a81548160ff02191690831515021790555061095881610ed1565b50565b60055481565b6000600160149054906101000a900460ff16905090565b610980610e53565b600073ffffffffffffffffffffffffffffffffffffffff168173ffffffffffffffffffffffffffffffffffffffff1614156109f0576040517f08c379a00000000000000000000000000000000000000000000000000000000081526004016109e790612835565b60405180910390fd5b6109f98161120c565b50565b610a04611360565b60008060008060008787810190610a1b9190612939565b945094509450945094506040518060a001604052808681526020018581526020018481526020018381526020018273ffffffffffffffffffffffffffffffffffffffff168152509550505050505092915050565b610a776113a8565b6000806000806000808888810190610a8f91906129d0565b9550955095509550955095506040518060c0016040528087815260200186815260200185815260200184815260200183815260200182815250965050505050505092915050565b60008251845114610b1c576040517f08c379a0000000000000000000000000000000000000000000000000000000008152600401610b1390612b19565b60405180910390fd5b60038054905084511115610b65576040517f08c379a0000000000000000000000000000000000000000000000000000000008152600401610b5c90612b85565b60405180910390fd5b600080855167ffffffffffffffff811115610b8357610b826114a6565b5b604051908082528060200260200182016040528015610bb15781602001602082028036833780820191505090505b50905060005b8651811015610e40576000858260208110610bd557610bd4612ba5565b5b1a60f81b60f81c9050601b8160ff161015610bfa57601b81610bf79190612be1565b90505b600060018a838b8681518110610c1357610c12612ba5565b5b60200260200101518b8781518110610c2e57610c2d612ba5565b5b602002602001015160405160008152602001604052604051610c539493929190612c27565b6020604051602081039080840390855afa158015610c75573d6000803e3d6000fd5b505050602060405103519050600073ffffffffffffffffffffffffffffffffffffffff168173ffffffffffffffffffffffffffffffffffffffff161415610cf1576040517f08c379a0000000000000000000000000000000000000000000000000000000008152600401610ce890612cb8565b60405180910390fd5b610cfb84826112d0565b15610d3b576040517f08c379a0000000000000000000000000000000000000000000000000000000008152600401610d3290612d24565b60405180910390fd5b80848481518110610d4f57610d4e612ba5565b5b602002602001019073ffffffffffffffffffffffffffffffffffffffff16908173ffffffffffffffffffffffffffffffffffffffff1681525050600460008273ffffffffffffffffffffffffffffffffffffffff1673ffffffffffffffffffffffffffffffffffffffff16815260200190815260200160002060009054906101000a900460ff1615610dee578480610de690612d44565b955050610e2b565b806040517fbf18af43000000000000000000000000000000000000000000000000000000008152600401610e229190611acc565b60405180910390fd5b50508080610e3890612d44565b915050610bb7565b5060055482101592505050949350505050565b610e5b611358565b73ffffffffffffffffffffffffffffffffffffffff16610e796108ae565b73ffffffffffffffffffffffffffffffffffffffff1614610ecf576040517f08c379a0000000000000000000000000000000000000000000000000000000008152600401610ec690612dd9565b60405180910390fd5b565b60005b600380549050811015610f8a5760006004600060038481548110610efb57610efa612ba5565b5b9060005260206000200160009054906101000a900473ffffffffffffffffffffffffffffffffffffffff1673ffffffffffffffffffffffffffffffffffffffff1673ffffffffffffffffffffffffffffffffffffffff16815260200190815260200160002060006101000a81548160ff0219169083151502179055508080610f8290612d44565b915050610ed4565b5060036000610f9991906113de565b60005b81518110156111d857600073ffffffffffffffffffffffffffffffffffffffff16828281518110610fd057610fcf612ba5565b5b602002602001015173ffffffffffffffffffffffffffffffffffffffff16141561102f576040517f08c379a000000000000000000000000000000000000000000000000000000000815260040161102690612e45565b60405180910390fd5b6004600083838151811061104657611045612ba5565b5b602002602001015173ffffffffffffffffffffffffffffffffffffffff1673ffffffffffffffffffffffffffffffffffffffff16815260200190815260200160002060009054906101000a900460ff16156110d6576040517f08c379a00000000000000000000000000000000000000000000000000000000081526004016110cd90612eb1565b60405180910390fd5b60038282815181106110eb576110ea612ba5565b5b60200260200101519080600181540180825580915050600190039060005260206000200160009091909190916101000a81548173ffffffffffffffffffffffffffffffffffffffff021916908373ffffffffffffffffffffffffffffffffffffffff16021790555060016004600084848151811061116c5761116b612ba5565b5b602002602001015173ffffffffffffffffffffffffffffffffffffffff1673ffffffffffffffffffffffffffffffffffffffff16815260200190815260200160002060006101000a81548160ff02191690831515021790555080806111d090612d44565b915050610f9c565b506001600260016003805490506111ef9190612701565b6111f99190612f00565b6112039190612701565b60058190555050565b60008060009054906101000a900473ffffffffffffffffffffffffffffffffffffffff169050816000806101000a81548173ffffffffffffffffffffffffffffffffffffffff021916908373ffffffffffffffffffffffffffffffffffffffff1602179055508173ffffffffffffffffffffffffffffffffffffffff168173ffffffffffffffffffffffffffffffffffffffff167f8be0079c531659141344cd1fd0a4f28419497f9722a3daafe3b4186f6b6457e060405160405180910390a35050565b600080600090505b835181101561134c578381815181106112f4576112f3612ba5565b5b602002602001015173ffffffffffffffffffffffffffffffffffffffff168373ffffffffffffffffffffffffffffffffffffffff161415611339576001915050611352565b808061134490612d44565b9150506112d8565b50600090505b92915050565b600033905090565b6040518060a0016040528060008019168152602001600081526020016000815260200160608152602001600073ffffffffffffffffffffffffffffffffffffffff1681525090565b6040518060c001604052806060815260200160008152602001606081526020016060815260200160608152602001600081525090565b50805460008255906000526020600020908101906113fc91906113ff565b50565b5b80821115611418576000816000905550600101611400565b5090565b6000604051905090565b600080fd5b600080fd5b600080fd5b600080fd5b600080fd5b60008083601f84011261145557611454611430565b5b8235905067ffffffffffffffff81111561147257611471611435565b5b60208301915083600182028301111561148e5761148d61143a565b5b9250929050565b6000601f19601f8301169050919050565b7f4e487b7100000000000000000000000000000000000000000000000000000000600052604160045260246000fd5b6114de82611495565b810181811067ffffffffffffffff821117156114fd576114fc6114a6565b5b80604052505050565b600061151061141c565b905061151c82826114d5565b919050565b600067ffffffffffffffff82111561153c5761153b6114a6565b5b602082029050602081019050919050565b6000819050919050565b6115608161154d565b811461156b57600080fd5b50565b60008135905061157d81611557565b92915050565b600061159661159184611521565b611506565b905080838252602082019050602084028301858111156115b9576115b861143a565b5b835b818110156115e257806115ce888261156e565b8452602084019350506020810190506115bb565b5050509392505050565b600082601f83011261160157611600611430565b5b8135611611848260208601611583565b91505092915050565b600080600080600080600080600060c08a8c03121561163c5761163b611426565b5b60008a013567ffffffffffffffff81111561165a5761165961142b565b5b6116668c828d0161143f565b995099505060208a013567ffffffffffffffff8111156116895761168861142b565b5b6116958c828d0161143f565b975097505060408a013567ffffffffffffffff8111156116b8576116b761142b565b5b6116c48c828d0161143f565b955095505060608a013567ffffffffffffffff8111156116e7576116e661142b565b5b6116f38c828d016115ec565b93505060808a013567ffffffffffffffff8111156117145761171361142b565b5b6117208c828d016115ec565b92505060a06117318c828d0161156e565b9150509295985092959850929598565b60008083601f84011261175757611756611430565b5b8235905067ffffffffffffffff81111561177457611773611435565b5b6020830191508360208202830111156117905761178f61143a565b5b9250929050565b600080602083850312156117ae576117ad611426565b5b600083013567ffffffffffffffff8111156117cc576117cb61142b565b5b6117d885828601611741565b92509250509250929050565b600081519050919050565b600082825260208201905092915050565b6000819050602082019050919050565b600073ffffffffffffffffffffffffffffffffffffffff82169050919050565b600061183b82611810565b9050919050565b61184b81611830565b82525050565b600061185d8383611842565b60208301905092915050565b6000602082019050919050565b6000611881826117e4565b61188b81856117ef565b935061189683611800565b8060005b838110156118c75781516118ae8882611851565b97506118b983611869565b92505060018101905061189a565b5085935050505092915050565b600060208201905081810360008301526118ee8184611876565b905092915050565b6000819050919050565b611909816118f6565b82525050565b60006020820190506119246000830184611900565b92915050565b611933816118f6565b811461193e57600080fd5b50565b6000813590506119508161192a565b92915050565b60008083601f84011261196c5761196b611430565b5b8235905067ffffffffffffffff81111561198957611988611435565b5b6020830191508360018202830111156119a5576119a461143a565b5b9250929050565b600080fd5b600060c082840312156119c7576119c66119ac565b5b81905092915050565b600080600080600080608087890312156119ed576119ec611426565b5b60006119fb89828a01611941565b965050602087013567ffffffffffffffff811115611a1c57611a1b61142b565b5b611a2889828a01611956565b9550955050604087013567ffffffffffffffff811115611a4b57611a4a61142b565b5b611a5789828a0161143f565b9350935050606087013567ffffffffffffffff811115611a7a57611a7961142b565b5b611a8689828a016119b1565b9150509295509295509295565b611a9c8161154d565b82525050565b6000602082019050611ab76000830184611a93565b92915050565b611ac681611830565b82525050565b6000602082019050611ae16000830184611abd565b92915050565b600067ffffffffffffffff821115611b0257611b016114a6565b5b602082029050602081019050919050565b611b1c81611830565b8114611b2757600080fd5b50565b600081359050611b3981611b13565b92915050565b6000611b52611b4d84611ae7565b611506565b90508083825260208201905060208402830185811115611b7557611b7461143a565b5b835b81811015611b9e5780611b8a8882611b2a565b845260208401935050602081019050611b77565b5050509392505050565b600082601f830112611bbd57611bbc611430565b5b8135611bcd848260208601611b3f565b91505092915050565b600060208284031215611bec57611beb611426565b5b600082013567ffffffffffffffff811115611c0a57611c0961142b565b5b611c1684828501611ba8565b91505092915050565b60008115159050919050565b611c3481611c1f565b82525050565b6000602082019050611c4f6000830184611c2b565b92915050565b600060208284031215611c6b57611c6a611426565b5b6000611c7984828501611b2a565b91505092915050565b600082825260208201905092915050565b7f43616c6c6572206973206e6f7420616e20617574686f72697a6564206f72616360008201527f6c65206e6f646500000000000000000000000000000000000000000000000000602082015250565b6000611cef602783611c82565b9150611cfa82611c93565b604082019050919050565b60006020820190508181036000830152611d1e81611ce2565b9050919050565b7f696e76616c696465206d65737361676500000000000000000000000000000000600082015250565b6000611d5b601083611c82565b9150611d6682611d25565b602082019050919050565b60006020820190508181036000830152611d8a81611d4e565b9050919050565b7f696e76616c696465207273000000000000000000000000000000000000000000600082015250565b6000611dc7600b83611c82565b9150611dd282611d91565b602082019050919050565b60006020820190508181036000830152611df681611dba565b9050919050565b7f696e76616c696465207373000000000000000000000000000000000000000000600082015250565b6000611e33600b83611c82565b9150611e3e82611dfd565b602082019050919050565b60006020820190508181036000830152611e6281611e26565b9050919050565b7f696e76616c696465207276000000000000000000000000000000000000000000600082015250565b6000611e9f600b83611c82565b9150611eaa82611e69565b602082019050919050565b60006020820190508181036000830152611ece81611e92565b9050919050565b7f496e76616c696420746f6b656e20616d6f756e74000000000000000000000000600082015250565b6000611f0b601483611c82565b9150611f1682611ed5565b602082019050919050565b60006020820190508181036000830152611f3a81611efe565b9050919050565b7f496e76616c696420726563656976657220616464726573732e00000000000000600082015250565b6000611f77601983611c82565b9150611f8282611f41565b602082019050919050565b60006020820190508181036000830152611fa681611f6a565b9050919050565b7f496e76616c696420746172676574436861696e49642e00000000000000000000600082015250565b6000611fe3601683611c82565b9150611fee82611fad565b602082019050919050565b6000602082019050818103600083015261201281611fd6565b9050919050565b600082825260208201905092915050565b82818337600083830152505050565b60006120458385612019565b935061205283858461202a565b61205b83611495565b840190509392505050565b6000606082019050818103600083015261208181888a612039565b90508181036020830152612096818688612039565b905081810360408301526120ab818486612039565b9050979650505050505050565b7f496e73756666696369656e74206f7220696e76616c6964207369676e6174757260008201527f6573000000000000000000000000000000000000000000000000000000000000602082015250565b6000612114602283611c82565b915061211f826120b8565b604082019050919050565b6000602082019050818103600083015261214381612107565b9050919050565b600081519050919050565b600082825260208201905092915050565b60005b83811015612184578082015181840152602081019050612169565b83811115612193576000848401525b50505050565b60006121a48261214a565b6121ae8185612155565b93506121be818560208601612166565b6121c781611495565b840191505092915050565b6121db816118f6565b82525050565b600060c08301600083015184820360008601526121fe8282612199565b915050602083015161221360208601826121d2565b506040830151848203604086015261222b8282612199565b915050606083015184820360608601526122458282612199565b9150506080830151848203608086015261225f8282612199565b91505060a083015161227460a08601826121d2565b508091505092915050565b600061228a8261214a565b6122948185611c82565b93506122a4818560208601612166565b6122ad81611495565b840191505092915050565b600060c0820190506122cd600083018a611900565b6122da6020830189611900565b81810360408301526122ec81886121e1565b90508181036060830152612301818688612039565b90508181036080830152612315818561227f565b905061232460a0830184611abd565b98975050505050505050565b600060a082019050818103600083015261234b81888a612039565b9050818103602083015261235f81876121e1565b905061236e6040830186611900565b8181036060830152612380818561227f565b905061238f6080830184611abd565b979650505050505050565b60006123a68385611c82565b93506123b383858461202a565b6123bc83611495565b840190509392505050565b600080fd5b600080fd5b600080fd5b600080833560016020038436030381126123f3576123f26123d1565b5b83810192508235915060208301925067ffffffffffffffff82111561241b5761241a6123c7565b5b600182023603841315612431576124306123cc565b5b509250929050565b60006124458385612155565b935061245283858461202a565b61245b83611495565b840190509392505050565b60006124756020840184611941565b905092915050565b600060c0830161249060008401846123d6565b85830360008701526124a3838284612439565b925050506124b46020840184612466565b6124c160208601826121d2565b506124cf60408401846123d6565b85830360408701526124e2838284612439565b925050506124f360608401846123d6565b8583036060870152612506838284612439565b9250505061251760808401846123d6565b858303608087015261252a838284612439565b9250505061253b60a0840184612466565b61254860a08601826121d2565b508091505092915050565b600060c082019050612568600083018b611abd565b612575602083018a611900565b818103604083015261258881888a61239a565b9050818103606083015261259d818688612039565b905081810360808301526125b1818561247d565b90506125c060a0830184611900565b9998505050505050505050565b600080fd5b600080fd5b600080fd5b600080833560016020038436030381126125f9576125f86125cd565b5b80840192508235915067ffffffffffffffff82111561261b5761261a6125d2565b5b602083019250600182023603831315612637576126366125d7565b5b509250929050565b600060e082019050612654600083018e611900565b8181036020830152612667818c8e61239a565b9050612676604083018b611900565b818103606083015261268981898b612039565b9050818103608083015261269e81878961239a565b905081810360a08301526126b381858761239a565b90506126c260c0830184611900565b9c9b505050505050505050505050565b7f4e487b7100000000000000000000000000000000000000000000000000000000600052601160045260246000fd5b600061270c826118f6565b9150612717836118f6565b9250827fffffffffffffffffffffffffffffffffffffffffffffffffffffffffffffffff0382111561274c5761274b6126d2565b5b828201905092915050565b7f416c726561647920696e697469616c697a656400000000000000000000000000600082015250565b600061278d601383611c82565b915061279882612757565b602082019050919050565b600060208201905081810360008301526127bc81612780565b9050919050565b7f4f776e61626c653a206e6577206f776e657220697320746865207a65726f206160008201527f6464726573730000000000000000000000000000000000000000000000000000602082015250565b600061281f602683611c82565b915061282a826127c3565b604082019050919050565b6000602082019050818103600083015261284e81612812565b9050919050565b600080fd5b600067ffffffffffffffff821115612875576128746114a6565b5b61287e82611495565b9050602081019050919050565b600061289e6128998461285a565b611506565b9050828152602081018484840111156128ba576128b9612855565b5b6128c584828561202a565b509392505050565b600082601f8301126128e2576128e1611430565b5b81356128f284826020860161288b565b91505092915050565b600061290682611810565b9050919050565b612916816128fb565b811461292157600080fd5b50565b6000813590506129338161290d565b92915050565b600080600080600060a0868803121561295557612954611426565b5b60006129638882890161156e565b955050602061297488828901611941565b945050604061298588828901611941565b935050606086013567ffffffffffffffff8111156129a6576129a561142b565b5b6129b2888289016128cd565b92505060806129c388828901612924565b9150509295509295909350565b60008060008060008060c087890312156129ed576129ec611426565b5b600087013567ffffffffffffffff811115612a0b57612a0a61142b565b5b612a1789828a016128cd565b9650506020612a2889828a01611941565b955050604087013567ffffffffffffffff811115612a4957612a4861142b565b5b612a5589828a016128cd565b945050606087013567ffffffffffffffff811115612a7657612a7561142b565b5b612a8289828a016128cd565b935050608087013567ffffffffffffffff811115612aa357612aa261142b565b5b612aaf89828a016128cd565b92505060a0612ac089828a01611941565b9150509295509295509295565b7f4d69736d617463686564207369676e6174757265206172726179730000000000600082015250565b6000612b03601b83611c82565b9150612b0e82612acd565b602082019050919050565b60006020820190508181036000830152612b3281612af6565b9050919050565b7f546f6f206d616e79207369676e61747572657300000000000000000000000000600082015250565b6000612b6f601383611c82565b9150612b7a82612b39565b602082019050919050565b60006020820190508181036000830152612b9e81612b62565b9050919050565b7f4e487b7100000000000000000000000000000000000000000000000000000000600052603260045260246000fd5b600060ff82169050919050565b6000612bec82612bd4565b9150612bf783612bd4565b92508260ff03821115612c0d57612c0c6126d2565b5b828201905092915050565b612c2181612bd4565b82525050565b6000608082019050612c3c6000830187611a93565b612c496020830186612c18565b612c566040830185611a93565b612c636060830184611a93565b95945050505050565b7f496e76616c6964207369676e61747572653a207a65726f206164647265737300600082015250565b6000612ca2601f83611c82565b9150612cad82612c6c565b602082019050919050565b60006020820190508181036000830152612cd181612c95565b9050919050565b7f6e6f6e2d756e69717565207369676e6174757265000000000000000000000000600082015250565b6000612d0e601483611c82565b9150612d1982612cd8565b602082019050919050565b60006020820190508181036000830152612d3d81612d01565b9050919050565b6000612d4f826118f6565b91507fffffffffffffffffffffffffffffffffffffffffffffffffffffffffffffffff821415612d8257612d816126d2565b5b600182019050919050565b7f4f776e61626c653a2063616c6c6572206973206e6f7420746865206f776e6572600082015250565b6000612dc3602083611c82565b9150612dce82612d8d565b602082019050919050565b60006020820190508181036000830152612df281612db6565b9050919050565b7f496e76616c6964206e6f64652061646472657373000000000000000000000000600082015250565b6000612e2f601483611c82565b9150612e3a82612df9565b602082019050919050565b60006020820190508181036000830152612e5e81612e22565b9050919050565b7f4475706c6963617465206e6f6465206164647265737300000000000000000000600082015250565b6000612e9b601683611c82565b9150612ea682612e65565b602082019050919050565b60006020820190508181036000830152612eca81612e8e565b9050919050565b7f4e487b7100000000000000000000000000000000000000000000000000000000600052601260045260246000fd5b6000612f0b826118f6565b9150612f16836118f6565b925082612f2657612f25612ed1565b5b82820490509291505056fea26469706673582212204f03c44c85cdd48f3e2adf2618591fd51071ccf0e81ed41fa77bfb24c96bbd8d64736f6c63430008090033",
  "linkReferences": {},
  "deployedLinkReferences": {}
}