{
  "_format": "hh-sol-artifact-1",
  "contractName": "Ramp",
  "sourceName": "contracts/RampContract.sol",
  "abi": [
    {
      "inputs": [
        {
          "internalType": "address[]",
          "name": "initialNodes",
          "type": "address[]"
        },
        {
          "internalType": "uint256",
          "name": "initialThreshold",
          "type": "uint256"
        }
      ],
      "stateMutability": "nonpayable",
      "type": "constructor"
    },
    {
      "anonymous": false,
      "inputs": [
        {
          "indexed": false,
          "internalType": "address[]",
          "name": "newOracleNodes",
          "type": "address[]"
        },
        {
          "indexed": false,
          "internalType": "uint256",
          "name": "newThreshold",
          "type": "uint256"
        }
      ],
      "name": "OracleNodesUpdated",
      "type": "event"
    },
    {
      "anonymous": false,
      "inputs": [
        {
          "indexed": true,
          "internalType": "bytes32",
          "name": "requestId",
          "type": "bytes32"
        },
        {
          "indexed": true,
          "internalType": "address",
          "name": "targetContract",
          "type": "address"
        },
        {
          "indexed": false,
          "internalType": "bytes",
          "name": "report",
          "type": "bytes"
        }
      ],
      "name": "ReportTransmitted",
      "type": "event"
    },
    {
      "anonymous": false,
      "inputs": [
        {
          "indexed": true,
          "internalType": "bytes32",
          "name": "requestId",
          "type": "bytes32"
        },
        {
          "indexed": true,
          "internalType": "address",
          "name": "sender",
          "type": "address"
        },
        {
          "indexed": false,
          "internalType": "uint256",
          "name": "targetChainId",
          "type": "uint256"
        },
        {
          "indexed": false,
          "internalType": "address",
          "name": "targetContract",
          "type": "address"
        },
        {
          "indexed": false,
          "internalType": "bytes",
          "name": "data",
          "type": "bytes"
        },
        {
          "components": [
            {
              "internalType": "string",
              "name": "swapId",
              "type": "string"
            },
            {
              "internalType": "uint256",
              "name": "targetChainId",
              "type": "uint256"
            },
            {
              "internalType": "string",
              "name": "targetContractAddress",
              "type": "string"
            },
            {
              "internalType": "string",
              "name": "tokenAddress",
              "type": "string"
            },
            {
              "internalType": "string",
              "name": "originToken",
              "type": "string"
            },
            {
              "internalType": "uint256",
              "name": "amount",
              "type": "uint256"
            }
          ],
          "indexed": false,
          "internalType": "struct IRamp.TokenAmount",
          "name": "tokenAmount",
          "type": "tuple"
        }
      ],
      "name": "RequestSent",
      "type": "event"
    },
    {
      "inputs": [],
      "name": "getOracleNodes",
      "outputs": [
        {
          "internalType": "address[]",
          "name": "",
          "type": "address[]"
        }
      ],
      "stateMutability": "view",
      "type": "function"
    },
    {
      "inputs": [],
      "name": "owner",
      "outputs": [
        {
          "internalType": "address",
          "name": "",
          "type": "address"
        }
      ],
      "stateMutability": "view",
      "type": "function"
    },
    {
      "inputs": [
        {
          "internalType": "bytes32",
          "name": "",
          "type": "bytes32"
        }
      ],
      "name": "requests",
      "outputs": [
        {
          "internalType": "bytes32",
          "name": "id",
          "type": "bytes32"
        },
        {
          "internalType": "address",
          "name": "sender",
          "type": "address"
        },
        {
          "internalType": "address",
          "name": "receiver",
          "type": "address"
        },
        {
          "internalType": "uint256",
          "name": "targetChainId",
          "type": "uint256"
        },
        {
          "internalType": "bytes",
          "name": "data",
          "type": "bytes"
        },
        {
          "components": [
            {
              "internalType": "string",
              "name": "swapId",
              "type": "string"
            },
            {
              "internalType": "uint256",
              "name": "targetChainId",
              "type": "uint256"
            },
            {
              "internalType": "string",
              "name": "targetContractAddress",
              "type": "string"
            },
            {
              "internalType": "string",
              "name": "tokenAddress",
              "type": "string"
            },
            {
              "internalType": "string",
              "name": "originToken",
              "type": "string"
            },
            {
              "internalType": "uint256",
              "name": "amount",
              "type": "uint256"
            }
          ],
          "internalType": "struct IRamp.TokenAmount",
          "name": "tokenAmount",
          "type": "tuple"
        },
        {
          "internalType": "uint256",
          "name": "timestamp",
          "type": "uint256"
        },
        {
          "internalType": "bool",
          "name": "fulfilled",
          "type": "bool"
        }
      ],
      "stateMutability": "view",
      "type": "function"
    },
    {
      "inputs": [
        {
          "internalType": "uint256",
          "name": "targetChainId",
          "type": "uint256"
        },
        {
          "internalType": "address",
          "name": "receiver",
          "type": "address"
        },
        {
          "internalType": "bytes",
          "name": "data",
          "type": "bytes"
        },
        {
          "components": [
            {
              "internalType": "string",
              "name": "swapId",
              "type": "string"
            },
            {
              "internalType": "uint256",
              "name": "targetChainId",
              "type": "uint256"
            },
            {
              "internalType": "string",
              "name": "targetContractAddress",
              "type": "string"
            },
            {
              "internalType": "string",
              "name": "tokenAddress",
              "type": "string"
            },
            {
              "internalType": "string",
              "name": "originToken",
              "type": "string"
            },
            {
              "internalType": "uint256",
              "name": "amount",
              "type": "uint256"
            }
          ],
          "internalType": "struct IRamp.TokenAmount",
          "name": "tokenAmount",
          "type": "tuple"
        }
      ],
      "name": "sendRequest",
      "outputs": [
        {
          "internalType": "bytes32",
          "name": "requestId",
          "type": "bytes32"
        }
      ],
      "stateMutability": "nonpayable",
      "type": "function"
    },
    {
      "inputs": [],
      "name": "threshold",
      "outputs": [
        {
          "internalType": "uint256",
          "name": "",
          "type": "uint256"
        }
      ],
      "stateMutability": "view",
      "type": "function"
    },
    {
      "inputs": [
        {
          "internalType": "bytes32",
          "name": "requestId",
          "type": "bytes32"
        },
        {
          "internalType": "bytes",
          "name": "report",
          "type": "bytes"
        },
        {
          "internalType": "bytes32[]",
          "name": "rs",
          "type": "bytes32[]"
        },
        {
          "internalType": "bytes32[]",
          "name": "ss",
          "type": "bytes32[]"
        },
        {
          "internalType": "bytes32",
          "name": "rawVs",
          "type": "bytes32"
        }
      ],
      "name": "transmit",
      "outputs": [],
      "stateMutability": "nonpayable",
      "type": "function"
    },
    {
      "inputs": [
        {
          "internalType": "address[]",
          "name": "newOracleNodes",
          "type": "address[]"
        },
        {
          "internalType": "uint256",
          "name": "newThreshold",
          "type": "uint256"
        }
      ],
      "name": "updateOracleNodes",
      "outputs": [],
      "stateMutability": "nonpayable",
      "type": "function"
    }
  ],
  "bytecode": "0x60a060405234801561001057600080fd5b50604051612cf6380380612cf683398181016040528101906100329190610516565b8060008111801561004857506001805490508111155b610087576040517f08c379a000000000000000000000000000000000000000000000000000000000815260040161007e906105cf565b60405180910390fd5b3373ffffffffffffffffffffffffffffffffffffffff1660808173ffffffffffffffffffffffffffffffffffffffff16815250506100ca836100d960201b60201c565b816000819055505050506106f6565b60005b815181101561031157600073ffffffffffffffffffffffffffffffffffffffff168282815181106101105761010f6105ef565b5b602002602001015173ffffffffffffffffffffffffffffffffffffffff160361016e576040517f08c379a00000000000000000000000000000000000000000000000000000000081526004016101659061066a565b60405180910390fd5b60026000838381518110610185576101846105ef565b5b602002602001015173ffffffffffffffffffffffffffffffffffffffff1673ffffffffffffffffffffffffffffffffffffffff16815260200190815260200160002060009054906101000a900460ff1615610215576040517f08c379a000000000000000000000000000000000000000000000000000000000815260040161020c906106d6565b60405180910390fd5b60016002600084848151811061022e5761022d6105ef565b5b602002602001015173ffffffffffffffffffffffffffffffffffffffff1673ffffffffffffffffffffffffffffffffffffffff16815260200190815260200160002060006101000a81548160ff021916908315150217905550600182828151811061029c5761029b6105ef565b5b60200260200101519080600181540180825580915050600190039060005260206000200160009091909190916101000a81548173ffffffffffffffffffffffffffffffffffffffff021916908373ffffffffffffffffffffffffffffffffffffffff16021790555080806001019150506100dc565b5050565b6000604051905090565b600080fd5b600080fd5b600080fd5b6000601f19601f8301169050919050565b7f4e487b7100000000000000000000000000000000000000000000000000000000600052604160045260246000fd5b6103778261032e565b810181811067ffffffffffffffff821117156103965761039561033f565b5b80604052505050565b60006103a9610315565b90506103b5828261036e565b919050565b600067ffffffffffffffff8211156103d5576103d461033f565b5b602082029050602081019050919050565b600080fd5b600073ffffffffffffffffffffffffffffffffffffffff82169050919050565b6000610416826103eb565b9050919050565b6104268161040b565b811461043157600080fd5b50565b6000815190506104438161041d565b92915050565b600061045c610457846103ba565b61039f565b9050808382526020820190506020840283018581111561047f5761047e6103e6565b5b835b818110156104a857806104948882610434565b845260208401935050602081019050610481565b5050509392505050565b600082601f8301126104c7576104c6610329565b5b81516104d7848260208601610449565b91505092915050565b6000819050919050565b6104f3816104e0565b81146104fe57600080fd5b50565b600081519050610510816104ea565b92915050565b6000806040838503121561052d5761052c61031f565b5b600083015167ffffffffffffffff81111561054b5761054a610324565b5b610557858286016104b2565b925050602061056885828601610501565b9150509250929050565b600082825260208201905092915050565b7f496e76616c6964207468726573686f6c64000000000000000000000000000000600082015250565b60006105b9601183610572565b91506105c482610583565b602082019050919050565b600060208201905081810360008301526105e8816105ac565b9050919050565b7f4e487b7100000000000000000000000000000000000000000000000000000000600052603260045260246000fd5b7f496e76616c6964206f7261636c65206e6f646500000000000000000000000000600082015250565b6000610654601383610572565b915061065f8261061e565b602082019050919050565b6000602082019050818103600083015261068381610647565b9050919050565b7f4475706c6963617465206f7261636c65206e6f64650000000000000000000000600082015250565b60006106c0601583610572565b91506106cb8261068a565b602082019050919050565b600060208201905081810360008301526106ef816106b3565b9050919050565b6080516125de6107186000396000818161017d01526107db01526125de6000f3fe608060405234801561001057600080fd5b506004361061007d5760003560e01c806368591baa1161005b57806368591baa146100da5780638da5cb5b146100f65780639d86698514610114578063a15458311461014b5761007d565b80633376e9ed1461008257806340fd10b31461009e57806342cde4e8146100bc575b600080fd5b61009c600480360381019061009791906112c8565b61017b565b005b6100a66102f8565b6040516100b39190611418565b60405180910390f35b6100c4610386565b6040516100d19190611449565b60405180910390f35b6100f460048036038101906100ef9190611546565b61038c565b005b6100fe6107d9565b60405161010b9190611631565b60405180910390f35b61012e6004803603810190610129919061164c565b6107fd565b604051610142989796959493929190611835565b60405180910390f35b61016560048036038101906101609190611911565b610b80565b60405161017291906119b5565b60405180910390f35b7f000000000000000000000000000000000000000000000000000000000000000073ffffffffffffffffffffffffffffffffffffffff163373ffffffffffffffffffffffffffffffffffffffff1614610209576040517f08c379a000000000000000000000000000000000000000000000000000000000815260040161020090611a2d565b60405180910390fd5b8060008111801561021f57506001805490508111155b61025e576040517f08c379a000000000000000000000000000000000000000000000000000000000815260040161025590611a99565b60405180910390fd5b610266610ccc565b6102b0848480806020026020016040519081016040528093929190818152602001838360200280828437600081840152601f19601f82011690508083019250505050505050610d87565b816000819055507fd48056cbc5e78aca2058f6d3a1a9c8fccca259d8769ae25f14b99002ac04ba2a8484846040516102ea93929190611b44565b60405180910390a150505050565b6060600180548060200260200160405190810160405280929190818152602001828054801561037c57602002820191906000526020600020905b8160009054906101000a900473ffffffffffffffffffffffffffffffffffffffff1673ffffffffffffffffffffffffffffffffffffffff1681526020019060010190808311610332575b5050505050905090565b60005481565b600260003373ffffffffffffffffffffffffffffffffffffffff1673ffffffffffffffffffffffffffffffffffffffff16815260200190815260200160002060009054906101000a900460ff16610418576040517f08c379a000000000000000000000000000000000000000000000000000000000815260040161040f90611be8565b60405180910390fd5b6000600360008a8152602001908152602001600020905080600c0160009054906101000a900460ff1615610481576040517f08c379a000000000000000000000000000000000000000000000000000000000815260040161047890611c54565b60405180910390fd5b888160000154146104c7576040517f08c379a00000000000000000000000000000000000000000000000000000000081526004016104be90611cc0565b60405180910390fd5b61059a8989898080601f016020809104026020016040519081016040528093929190818152602001838380828437600081840152601f19601f82011690508083019250505050505050888880806020026020016040519081016040528093929190818152602001838360200280828437600081840152601f19601f82011690508083019250505050505050878780806020026020016040519081016040528093929190818152602001838360200280828437600081840152601f19601f8201169050808301925050505050505086610fc3565b6105d9576040517f08c379a00000000000000000000000000000000000000000000000000000000081526004016105d090611d52565b60405180910390fd5b600181600c0160006101000a81548160ff02191690831515021790555060008160020160009054906101000a900473ffffffffffffffffffffffffffffffffffffffff1673ffffffffffffffffffffffffffffffffffffffff168a8a8a60405160240161064893929190611dae565b6040516020818303038152906040527fd8c1e59d000000000000000000000000000000000000000000000000000000007bffffffffffffffffffffffffffffffffffffffffffffffffffffffff19166020820180517bffffffffffffffffffffffffffffffffffffffffffffffffffffffff83818316178352505050506040516106d29190611e1c565b6000604051808303816000865af19150503d806000811461070f576040519150601f19603f3d011682016040523d82523d6000602084013e610714565b606091505b5050905080610758576040517f08c379a000000000000000000000000000000000000000000000000000000000815260040161074f90611ea5565b60405180910390fd5b8160020160009054906101000a900473ffffffffffffffffffffffffffffffffffffffff1673ffffffffffffffffffffffffffffffffffffffff168a7f4b5ce5682ddac49be98e1381a95046dab9f39af023bffd2653cac333f45cb6398b8b6040516107c5929190611ec5565b60405180910390a350505050505050505050565b7f000000000000000000000000000000000000000000000000000000000000000081565b60036020528060005260406000206000915090508060000154908060010160009054906101000a900473ffffffffffffffffffffffffffffffffffffffff16908060020160009054906101000a900473ffffffffffffffffffffffffffffffffffffffff169080600301549080600401805461087890611f18565b80601f01602080910402602001604051908101604052809291908181526020018280546108a490611f18565b80156108f15780601f106108c6576101008083540402835291602001916108f1565b820191906000526020600020905b8154815290600101906020018083116108d457829003601f168201915b505050505090806005016040518060c001604052908160008201805461091690611f18565b80601f016020809104026020016040519081016040528092919081815260200182805461094290611f18565b801561098f5780601f106109645761010080835404028352916020019161098f565b820191906000526020600020905b81548152906001019060200180831161097257829003601f168201915b50505050508152602001600182015481526020016002820180546109b290611f18565b80601f01602080910402602001604051908101604052809291908181526020018280546109de90611f18565b8015610a2b5780601f10610a0057610100808354040283529160200191610a2b565b820191906000526020600020905b815481529060010190602001808311610a0e57829003601f168201915b50505050508152602001600382018054610a4490611f18565b80601f0160208091040260200160405190810160405280929190818152602001828054610a7090611f18565b8015610abd5780601f10610a9257610100808354040283529160200191610abd565b820191906000526020600020905b815481529060010190602001808311610aa057829003601f168201915b50505050508152602001600482018054610ad690611f18565b80601f0160208091040260200160405190810160405280929190818152602001828054610b0290611f18565b8015610b4f5780601f10610b2457610100808354040283529160200191610b4f565b820191906000526020600020905b815481529060010190602001808311610b3257829003601f168201915b505050505081526020016005820154815250509080600b01549080600c0160009054906101000a900460ff16905088565b60008073ffffffffffffffffffffffffffffffffffffffff168573ffffffffffffffffffffffffffffffffffffffff1603610bf0576040517f08c379a0000000000000000000000000000000000000000000000000000000008152600401610be790611f95565b60405180910390fd5b60008260a0013511610c37576040517f08c379a0000000000000000000000000000000000000000000000000000000008152600401610c2e90612001565b60405180910390fd5b33868686868642604051602001610c5497969594939291906121ad565b6040516020818303038152906040528051906020012090503373ffffffffffffffffffffffffffffffffffffffff16817f6f7b36f2244e5f99b1aa26bb00d356cf04aa73b812c7675746d8479c60f7e79e8888888888604051610cbb95949392919061221e565b60405180910390a395945050505050565b60005b600180549050811015610d76576002600060018381548110610cf457610cf3612273565b5b9060005260206000200160009054906101000a900473ffffffffffffffffffffffffffffffffffffffff1673ffffffffffffffffffffffffffffffffffffffff1673ffffffffffffffffffffffffffffffffffffffff16815260200190815260200160002060006101000a81549060ff02191690558080600101915050610ccf565b5060016000610d8591906111e5565b565b60005b8151811015610fbf57600073ffffffffffffffffffffffffffffffffffffffff16828281518110610dbe57610dbd612273565b5b602002602001015173ffffffffffffffffffffffffffffffffffffffff1603610e1c576040517f08c379a0000000000000000000000000000000000000000000000000000000008152600401610e13906122ee565b60405180910390fd5b60026000838381518110610e3357610e32612273565b5b602002602001015173ffffffffffffffffffffffffffffffffffffffff1673ffffffffffffffffffffffffffffffffffffffff16815260200190815260200160002060009054906101000a900460ff1615610ec3576040517f08c379a0000000000000000000000000000000000000000000000000000000008152600401610eba9061235a565b60405180910390fd5b600160026000848481518110610edc57610edb612273565b5b602002602001015173ffffffffffffffffffffffffffffffffffffffff1673ffffffffffffffffffffffffffffffffffffffff16815260200190815260200160002060006101000a81548160ff0219169083151502179055506001828281518110610f4a57610f49612273565b5b60200260200101519080600181540180825580915050600190039060005260206000200160009091909190916101000a81548173ffffffffffffffffffffffffffffffffffffffff021916908373ffffffffffffffffffffffffffffffffffffffff1602179055508080600101915050610d8a565b5050565b60008251845114611009576040517f08c379a0000000000000000000000000000000000000000000000000000000008152600401611000906123c6565b60405180910390fd5b60408451111561104e576040517f08c379a000000000000000000000000000000000000000000000000000000000815260040161104590612432565b60405180910390fd5b60008686604051602001611063929190612473565b604051602081830303815290604052805190602001209050600080600090505b86518110156111d45760008582602081106110a1576110a0612273565b5b1a60f81b60f81c9050601b8160ff1610156110c657601b816110c391906124d7565b90505b6000600185838b86815181106110df576110de612273565b5b60200260200101518b87815181106110fa576110f9612273565b5b60200260200101516040516000815260200160405260405161111f949392919061251b565b6020604051602081039080840390855afa158015611141573d6000803e3d6000fd5b505050602060405103519050600260008273ffffffffffffffffffffffffffffffffffffffff1673ffffffffffffffffffffffffffffffffffffffff16815260200190815260200160002060009054906101000a900460ff16156111ae5783806111aa90612560565b9450505b60005484106111c5576001955050505050506111dc565b50508080600101915050611083565b506000925050505b95945050505050565b50805460008255906000526020600020908101906112039190611206565b50565b5b8082111561121f576000816000905550600101611207565b5090565b600080fd5b600080fd5b600080fd5b600080fd5b600080fd5b60008083601f8401126112525761125161122d565b5b8235905067ffffffffffffffff81111561126f5761126e611232565b5b60208301915083602082028301111561128b5761128a611237565b5b9250929050565b6000819050919050565b6112a581611292565b81146112b057600080fd5b50565b6000813590506112c28161129c565b92915050565b6000806000604084860312156112e1576112e0611223565b5b600084013567ffffffffffffffff8111156112ff576112fe611228565b5b61130b8682870161123c565b9350935050602061131e868287016112b3565b9150509250925092565b600081519050919050565b600082825260208201905092915050565b6000819050602082019050919050565b600073ffffffffffffffffffffffffffffffffffffffff82169050919050565b600061137f82611354565b9050919050565b61138f81611374565b82525050565b60006113a18383611386565b60208301905092915050565b6000602082019050919050565b60006113c582611328565b6113cf8185611333565b93506113da83611344565b8060005b8381101561140b5781516113f28882611395565b97506113fd836113ad565b9250506001810190506113de565b5085935050505092915050565b6000602082019050818103600083015261143281846113ba565b905092915050565b61144381611292565b82525050565b600060208201905061145e600083018461143a565b92915050565b6000819050919050565b61147781611464565b811461148257600080fd5b50565b6000813590506114948161146e565b92915050565b60008083601f8401126114b0576114af61122d565b5b8235905067ffffffffffffffff8111156114cd576114cc611232565b5b6020830191508360018202830111156114e9576114e8611237565b5b9250929050565b60008083601f8401126115065761150561122d565b5b8235905067ffffffffffffffff81111561152357611522611232565b5b60208301915083602082028301111561153f5761153e611237565b5b9250929050565b60008060008060008060008060a0898b03121561156657611565611223565b5b60006115748b828c01611485565b985050602089013567ffffffffffffffff81111561159557611594611228565b5b6115a18b828c0161149a565b9750975050604089013567ffffffffffffffff8111156115c4576115c3611228565b5b6115d08b828c016114f0565b9550955050606089013567ffffffffffffffff8111156115f3576115f2611228565b5b6115ff8b828c016114f0565b935093505060806116128b828c01611485565b9150509295985092959890939650565b61162b81611374565b82525050565b60006020820190506116466000830184611622565b92915050565b60006020828403121561166257611661611223565b5b600061167084828501611485565b91505092915050565b61168281611464565b82525050565b600081519050919050565b600082825260208201905092915050565b60005b838110156116c25780820151818401526020810190506116a7565b60008484015250505050565b6000601f19601f8301169050919050565b60006116ea82611688565b6116f48185611693565b93506117048185602086016116a4565b61170d816116ce565b840191505092915050565b600081519050919050565b600082825260208201905092915050565b600061173f82611718565b6117498185611723565b93506117598185602086016116a4565b611762816116ce565b840191505092915050565b61177681611292565b82525050565b600060c08301600083015184820360008601526117998282611734565b91505060208301516117ae602086018261176d565b50604083015184820360408601526117c68282611734565b915050606083015184820360608601526117e08282611734565b915050608083015184820360808601526117fa8282611734565b91505060a083015161180f60a086018261176d565b508091505092915050565b60008115159050919050565b61182f8161181a565b82525050565b60006101008201905061184b600083018b611679565b611858602083018a611622565b6118656040830189611622565b611872606083018861143a565b818103608083015261188481876116df565b905081810360a0830152611898818661177c565b90506118a760c083018561143a565b6118b460e0830184611826565b9998505050505050505050565b6118ca81611374565b81146118d557600080fd5b50565b6000813590506118e7816118c1565b92915050565b600080fd5b600060c08284031215611908576119076118ed565b5b81905092915050565b60008060008060006080868803121561192d5761192c611223565b5b600061193b888289016112b3565b955050602061194c888289016118d8565b945050604086013567ffffffffffffffff81111561196d5761196c611228565b5b6119798882890161149a565b9350935050606086013567ffffffffffffffff81111561199c5761199b611228565b5b6119a8888289016118f2565b9150509295509295909350565b60006020820190506119ca6000830184611679565b92915050565b600082825260208201905092915050565b7f43616c6c6572206973206e6f7420746865206f776e6572000000000000000000600082015250565b6000611a176017836119d0565b9150611a22826119e1565b602082019050919050565b60006020820190508181036000830152611a4681611a0a565b9050919050565b7f496e76616c6964207468726573686f6c64000000000000000000000000000000600082015250565b6000611a836011836119d0565b9150611a8e82611a4d565b602082019050919050565b60006020820190508181036000830152611ab281611a76565b9050919050565b6000819050919050565b6000611ad260208401846118d8565b905092915050565b6000602082019050919050565b6000611af38385611333565b9350611afe82611ab9565b8060005b85811015611b3757611b148284611ac3565b611b1e8882611395565b9750611b2983611ada565b925050600181019050611b02565b5085925050509392505050565b60006040820190508181036000830152611b5f818587611ae7565b9050611b6e602083018461143a565b949350505050565b7f43616c6c6572206973206e6f7420616e20617574686f72697a6564206f72616360008201527f6c65206e6f646500000000000000000000000000000000000000000000000000602082015250565b6000611bd26027836119d0565b9150611bdd82611b76565b604082019050919050565b60006020820190508181036000830152611c0181611bc5565b9050919050565b7f5265717565737420616c72656164792066756c66696c6c656400000000000000600082015250565b6000611c3e6019836119d0565b9150611c4982611c08565b602082019050919050565b60006020820190508181036000830152611c6d81611c31565b9050919050565b7f496e76616c696420726571756573742049440000000000000000000000000000600082015250565b6000611caa6012836119d0565b9150611cb582611c74565b602082019050919050565b60006020820190508181036000830152611cd981611c9d565b9050919050565b7f496e73756666696369656e74206f7220696e76616c6964207369676e6174757260008201527f6573000000000000000000000000000000000000000000000000000000000000602082015250565b6000611d3c6022836119d0565b9150611d4782611ce0565b604082019050919050565b60006020820190508181036000830152611d6b81611d2f565b9050919050565b82818337600083830152505050565b6000611d8d8385611693565b9350611d9a838584611d72565b611da3836116ce565b840190509392505050565b6000604082019050611dc36000830186611679565b8181036020830152611dd6818486611d81565b9050949350505050565b600081905092915050565b6000611df682611688565b611e008185611de0565b9350611e108185602086016116a4565b80840191505092915050565b6000611e288284611deb565b915081905092915050565b7f466f7277617264696e6720746f2074617267657420636f6e747261637420666160008201527f696c656400000000000000000000000000000000000000000000000000000000602082015250565b6000611e8f6024836119d0565b9150611e9a82611e33565b604082019050919050565b60006020820190508181036000830152611ebe81611e82565b9050919050565b60006020820190508181036000830152611ee0818486611d81565b90509392505050565b7f4e487b7100000000000000000000000000000000000000000000000000000000600052602260045260246000fd5b60006002820490506001821680611f3057607f821691505b602082108103611f4357611f42611ee9565b5b50919050565b7f496e76616c696420726563656976657220616464726573730000000000000000600082015250565b6000611f7f6018836119d0565b9150611f8a82611f49565b602082019050919050565b60006020820190508181036000830152611fae81611f72565b9050919050565b7f496e76616c696420746f6b656e20616d6f756e74000000000000000000000000600082015250565b6000611feb6014836119d0565b9150611ff682611fb5565b602082019050919050565b6000602082019050818103600083015261201a81611fde565b9050919050565b600080fd5b600080fd5b600080fd5b6000808335600160200384360303811261204d5761204c61202b565b5b83810192508235915060208301925067ffffffffffffffff82111561207557612074612021565b5b60018202360383131561208b5761208a612026565b5b509250929050565b600061209f8385611723565b93506120ac838584611d72565b6120b5836116ce565b840190509392505050565b60006120cf60208401846112b3565b905092915050565b600060c083016120ea6000840184612030565b85830360008701526120fd838284612093565b9250505061210e60208401846120c0565b61211b602086018261176d565b506121296040840184612030565b858303604087015261213c838284612093565b9250505061214d6060840184612030565b8583036060870152612160838284612093565b925050506121716080840184612030565b8583036080870152612184838284612093565b9250505061219560a08401846120c0565b6121a260a086018261176d565b508091505092915050565b600060c0820190506121c2600083018a611622565b6121cf602083018961143a565b6121dc6040830188611622565b81810360608301526121ef818688611d81565b9050818103608083015261220381856120d7565b905061221260a083018461143a565b98975050505050505050565b6000608082019050612233600083018861143a565b6122406020830187611622565b8181036040830152612253818587611d81565b9050818103606083015261226781846120d7565b90509695505050505050565b7f4e487b7100000000000000000000000000000000000000000000000000000000600052603260045260246000fd5b7f496e76616c6964206f7261636c65206e6f646500000000000000000000000000600082015250565b60006122d86013836119d0565b91506122e3826122a2565b602082019050919050565b60006020820190508181036000830152612307816122cb565b9050919050565b7f4475706c6963617465206f7261636c65206e6f64650000000000000000000000600082015250565b60006123446015836119d0565b915061234f8261230e565b602082019050919050565b6000602082019050818103600083015261237381612337565b9050919050565b7f4d69736d617463686564207369676e6174757265206172726179730000000000600082015250565b60006123b0601b836119d0565b91506123bb8261237a565b602082019050919050565b600060208201905081810360008301526123df816123a3565b9050919050565b7f546f6f206d616e79207369676e61747572657300000000000000000000000000600082015250565b600061241c6013836119d0565b9150612427826123e6565b602082019050919050565b6000602082019050818103600083015261244b8161240f565b9050919050565b6000819050919050565b61246d61246882611464565b612452565b82525050565b600061247f828561245c565b60208201915061248f8284611deb565b91508190509392505050565b600060ff82169050919050565b7f4e487b7100000000000000000000000000000000000000000000000000000000600052601160045260246000fd5b60006124e28261249b565b91506124ed8361249b565b9250828201905060ff811115612506576125056124a8565b5b92915050565b6125158161249b565b82525050565b60006080820190506125306000830187611679565b61253d602083018661250c565b61254a6040830185611679565b6125576060830184611679565b95945050505050565b600061256b82611292565b91507fffffffffffffffffffffffffffffffffffffffffffffffffffffffffffffffff820361259d5761259c6124a8565b5b60018201905091905056fea2646970667358221220954fb4ae8ae117cc3f981c10e5af2df7d17c5db705fbb204cae577bde7f39b0864736f6c634300081c0033",
  "linkReferences": {},
  "deployedLinkReferences": {}
}